:06000000024A2F22222219
:0D000B0002486B53ADF143AD0853ADFE222A
:10001B00024ECCC2AF759617E4F597F5F8F5EA7575
:10002B009618F597F580F5EB759619F597F590F50C
:10003B00EC75961BF597F5B0F5EE75961CF597F5E7
:10004B00C0F5EF75961DF597F5C8F5F275961EF58B
:0B005B0097F5D8F5F7D2AF22024973E9
:030073000252DE58
:03008300025136F1
:03008B00024FCD54
:100093000250689001CFEFF0A3EDF0900170E0D330
:1000A300940A4004E4F08006900170E004F01251D9
:1000B3006F900205E0600302034BD2DAD2D9C28506
:1000C300D284D283D282D281D280D2F9D2F8D2D84A
:1000D300D2CBD2CAD2B7D2B6D2B1FE7F02FD900143
:1000E30036E0FAA3E0F97B01123766900138E0208D
:1000F300E00302033BE054015401FF900136E0FCAE
:10010300A3E0F5828C83C083C082E0FCA3E054FEAD
:10011300FDECFEED4FFFD082D083EEF0A3EFF09025
:100123000138E05401540125E0FFE433FE90013629
:10013300E0FCA3E0F5828C83C083C082E0FCA3E0F3
:1001430054FDFDEC4EFEED4FFFD082D083EEF0A3C5
:10015300EFF0900138E054017E0054017802C3337C
:10016300CE33CED8F9FF900136E0FCA3E0F5828CC4
:1001730083C083C082E0FCA3E054FBFDEC4EFEEDA4
:100183004FFFD082D083EEF0A3EFF0900138E0541C
:10019300017E0054017803C333CE33CED8F9FF90E8
:1001A3000136E0FCA3E0F5828C83C083C082E0FCCF
:1001B300A3E054F7FDEC4EFEED4FFFD082D083EE6B
:1001C300F0A3EFF0900138E054015401C4F8540F48
:1001D300C868FFE4C454F048FE900136E0FCA3E095
:1001E300F5828C83C083C082E0FCA3E054EFFDEC76
:1001F3004EFEED4FFFD082D083EEF0A3EFF09001DF
:1002030038E054017E0054017805C333CE33CED891
:10021300F9FF900136E0FCA3E0F5828C83C083C034
:1002230082E0FCA3E054DFFDEC4EFEED4FFFD082F5
:10023300D083EEF0A3EFF0900138E054017E005438
:10024300017806C333CE33CED8F9FF900136E0FCF4
:10025300A3E0F5828C83C083C082E0FCA3E054BF9B
:10026300FDEC4EFEED4FFFD082D083EEF0A3EFF016
:10027300900138E054017E0054017807C333CE3334
:10028300CED8F9FF900136E0FCA3E0F5828C83C061
:1002930083C082E0FCA3E0547FFDEC4EFEED4FFFF4
:1002A300D082D083EEF0A3EFF0900138E0540154F4
:1002B30001FE900136E0FCA3E0F5828C83C083C08D
:1002C30082E0FCA3E0FDEC54FE4EFEEDFFD082D0B5
:1002D30083EEF0A3EFF0900138E05401540125E0E0
:1002E300FE900136E0FCA3E0F5828C83C083C082DC
:1002F300E0FCA3E0FDEC54FD4EFEEDFFD082D08385
:10030300EEF0A3EFF0900138E05401540125E0250D
:10031300E0FE900136E0FCA3E0F5828C83C083C04D
:1003230082E0FCA3E0FDEC54FB4EFEEDFFD082D057
:1003330083EEF0A3EFF0800A900138E030E003127F
:10034300516F12533D02277A900205E06401600366
:100353000205F9D2DAD2D9D285C284D283D282D22B
:1003630081D280D2F9D2F8D2D8D2CBD2CAD2B7D2E4
:10037300B6D2B1FE7F02FD900136E0FAA3E0F97B2D
:1003830001123766900138E020E1030205F3E0FF34
:10039300C31354015401FF900136E0FCA3E0F5823E
:1003A3008C83C083C082E0FCA3E054FEFDECFEED31
:1003B3004FFFD082D083EEF0A3EFF0900138E0FF3F
:1003C300C3135401540125E0FFE433FE900136E0EA
:1003D300FCA3E0F5828C83C083C082E0FCA3E054DD
:1003E300FDFDEC4EFEED4FFFD082D083EEF0A3EF88
:1003F300F0900138E0FFC31354017E0054017802EA
:10040300C333CE33CED8F9FF900136E0FCA3E0F539
:10041300828C83C083C082E0FCA3E054FBFDEC4EDE
:10042300FEED4FFFD082D083EEF0A3EFF0900138C2
:10043300E0FFC31354017E0054017803C333CE336A
:10044300CED8F9FF900136E0FCA3E0F5828C83C09F
:1004530083C082E0FCA3E054F7FDEC4EFEED4FFFBA
:10046300D082D083EEF0A3EFF0900138E0FFC31306
:1004730054015401C4F8540FC868FFE4C454F0484D
:10048300FE900136E0FCA3E0F5828C83C083C0823A
:10049300E0FCA3E054EFFDEC4EFEED4FFFD082D025
:1004A30083EEF0A3EFF0900138E0FFC31354017E15
:1004B3000054017805C333CE33CED8F9FF9001360B
:1004C300E0FCA3E0F5828C83C083C082E0FCA3E060
:1004D30054DFFDEC4EFEED4FFFD082D083EEF0A350
:1004E300EFF0900138E0FFC31354017E005401780C
:1004F30006C333CE33CED8F9FF900136E0FCA3E038
:10050300F5828C83C083C082E0FCA3E054BFFDEC82
:100513004EFEED4FFFD082D083EEF0A3EFF09001BB
:1005230038E0FFC31354017E0054017807C333CE70
:1005330033CED8F9FF900136E0FCA3E0F5828C833B
:10054300C083C082E0FCA3E0547FFDEC4EFEED4F80
:10055300FFD082D083EEF0A3EFF0900138E0FFC329
:100563001354015401FE900136E0FCA3E0F5828CA4
:1005730083C083C082E0FCA3E0FDEC54FE4EFEED9D
:10058300FFD082D083EEF0A3EFF0900138E0FFC3F9
:10059300135401540125E0FE900136E0FCA3E0F57D
:1005A300828C83C083C082E0FCA3E0FDEC54FD4E4B
:1005B300FEEDFFD082D083EEF0A3EFF0900138E0A0
:1005C300FFC3135401540125E025E0FE900136E0FA
:1005D300FCA3E0F5828C83C083C082E0FCA3E0FD32
:1005E300EC54FB4EFEEDFFD082D083EEF0A3EFF090
:1005F30012533D02277A900205E064026003020869
:10060300F4D2DAD2D9D285D284C283D282D281D231
:1006130080D2F9D2F8D2D8D2CBD2CAD2B7D2B6D2FC
:10062300B1FE7F02FD900136E0FAA3E0F97B0112EF
:100633003766900138E020E2030208EEE0FF13136F
:10064300543F54015401FF900136E0FCA3E0F582CE
:100653008C83C083C082E0FCA3E054FEFDECFEED7E
:100663004FFFD082D083EEF0A3EFF0900138E0FF8C
:100673001313543F5401540125E0FFE433FE90016A
:1006830036E0FCA3E0F5828C83C083C082E0FCA348
:10069300E054FDFDEC4EFEED4FFFD082D083EEF033
:1006A300A3EFF0900138E0FF1313543F54017E0091
:1006B30054017802C333CE33CED8F9FF900136E02C
:1006C300FCA3E0F5828C83C083C082E0FCA3E054EA
:1006D300FBFDEC4EFEED4FFFD082D083EEF0A3EF97
:1006E300F0900138E0FF1313543F54017E0054018E
:1006F3007803C333CE33CED8F9FF900136E0FCA3A1
:10070300E0F5828C83C083C082E0FCA3E054F7FD54
:10071300EC4EFEED4FFFD082D083EEF0A3EFF090CE
:100723000138E0FF1313543F54015401C4F8540F2C
:10073300C868FFE4C454F048FE900136E0FCA3E02F
:10074300F5828C83C083C082E0FCA3E054EFFDEC10
:100753004EFEED4FFFD082D083EEF0A3EFF0900179
:1007630038E0FF1313543F54017E0054017805C34E
:1007730033CE33CED8F9FF900136E0FCA3E0F58207
:100783008C83C083C082E0FCA3E054DFFDEC4EFE0B
:10079300ED4FFFD082D083EEF0A3EFF0900138E06D
:1007A300FF1313543F54017E0054017806C333CE24
:1007B30033CED8F9FF900136E0FCA3E0F5828C83B9
:1007C300C083C082E0FCA3E054BFFDEC4EFEED4FBE
:1007D300FFD082D083EEF0A3EFF0900138E0FF1357
:1007E30013543F54017E0054017807C333CE33CEF4
:1007F300D8F9FF900136E0FCA3E0F5828C83C08337
:10080300C082E0FCA3E0547FFDEC4EFEED4FFFD031
:1008130082D083EEF0A3EFF0900138E0FF1313547E
:100823003F54015401FE900136E0FCA3E0F5828CB5
:1008330083C083C082E0FCA3E0FDEC54FE4EFEEDDA
:10084300FFD082D083EEF0A3EFF0900138E0FF13E6
:1008530013543F5401540125E0FE900136E0FCA3FC
:10086300E0F5828C83C083C082E0FCA3E0FDEC54FE
:10087300FD4EFEEDFFD082D083EEF0A3EFF09001AA
:1008830038E0FF1313543F5401540125E025E0FEE3
:10089300900136E0FCA3E0F5828C83C083C082E044
:1008A300FCA3E0FDEC54FB4EFEEDFFD082D083EEC3
:1008B300F0A3EFF0900138E0FF1313543F540154B9
:1008C3000133333354F8FE900136E0FCA3E0F582A4
:1008D3008C83C083C082E0FCA3E0FDEC54F74EFEA2
:1008E300EDFFD082D083EEF0A3EFF012533D022749
:1008F3007A900205E064036003020BFBD2DAD2D9DB
:10090300D285D284D283C282D281D280D2F9D2F864
:10091300D2D8D2CBD2CAD2B7D2B6D2B1FE7F02FDE1
:10092300900136E0FAA3E0F97B01123766900138B3
:10093300E020E303020BF5E0FF131313541F5401EC
:100943005401FF900136E0FCA3E0F5828C83C08361
:10095300C082E0FCA3E054FEFDECFEED4FFFD0822D
:10096300D083EEF0A3EFF0900138E0FF131313549C
:100973001F5401540125E0FFE433FE900136E0FCEF
:10098300A3E0F5828C83C083C082E0FCA3E054FD26
:10099300FDEC4EFEED4FFFD082D083EEF0A3EFF0DF
:1009A300900138E0FF131313541F54017E005401C8
:1009B3007802C333CE33CED8F9FF900136E0FCA3DF
:1009C300E0F5828C83C083C082E0FCA3E054FBFD8E
:1009D300EC4EFEED4FFFD082D083EEF0A3EFF0900C
:1009E3000138E0FF131313541F54017E00540178A0
:1009F30003C333CE33CED8F9FF900136E0FCA3E036
:100A0300F5828C83C083C082E0FCA3E054F7FDEC45
:100A13004EFEED4FFFD082D083EEF0A3EFF09001B6
:100A230038E0FF131313541F54015401C4F8540F37
:100A3300C868FFE4C454F048FE900136E0FCA3E02C
:100A4300F5828C83C083C082E0FCA3E054EFFDEC0D
:100A53004EFEED4FFFD082D083EEF0A3EFF0900176
:100A630038E0FF131313541F54017E00540178051B
:100A7300C333CE33CED8F9FF900136E0FCA3E0F5C3
:100A8300828C83C083C082E0FCA3E054DFFDEC4E84
:100A9300FEED4FFFD082D083EEF0A3EFF09001384C
:100AA300E0FF131313541F54017E0054017806C34F
:100AB30033CE33CED8F9FF900136E0FCA3E0F582C4
:100AC3008C83C083C082E0FCA3E054BFFDEC4EFEE8
:100AD300ED4FFFD082D083EEF0A3EFF0900138E02A
:100AE300FF131313541F54017E0054017807C333BB
:100AF300CE33CED8F9FF900136E0FCA3E0F5828C2B
:100B030083C083C082E0FCA3E0547FFDEC4EFEED86
:100B13004FFFD082D083EEF0A3EFF0900138E0FFD7
:100B2300131313541F54015401FE900136E0FCA328
:100B3300E0F5828C83C083C082E0FCA3E0FDEC542B
:100B4300FE4EFEEDFFD082D083EEF0A3EFF09001D6
:100B530038E0FF131313541F5401540125E0FE9092
:100B63000136E0FCA3E0F5828C83C083C082E0FC05
:100B7300A3E0FDEC54FD4EFEEDFFD082D083EEF0FA
:100B8300A3EFF0900138E0FF131313541F540154E3
:100B93000125E025E0FE900136E0FCA3E0F5828C20
:100BA30083C083C082E0FCA3E0FDEC54FB4EFEED6A
:100BB300FFD082D083EEF0A3EFF0900138E0FF1373
:100BC3001313541F5401540133333354F8FE90016B
:100BD30036E0FCA3E0F5828C83C083C082E0FCA3F3
:100BE300E0FDEC54F74EFEEDFFD082D083EEF0A390
:100BF300EFF012533D02277A900205E0640460038C
:100C0300020EEAD2DAD2D9D285D284D283D282C278
:100C130081D280D2F9D2F8D2D8D2CBD2CAD2B7D22B
:100C2300B6D2B1FE7F02FD900136E0FAA3E0F97B74
:100C330001123766900138E020E403020EE4E0FF7E
:100C4300C4540F54015401FF900136E0FCA3E0F5B6
:100C5300828C83C083C082E0FCA3E054FEFDECFEE3
:100C6300ED4FFFD082D083EEF0A3EFF0900138E098
:100C7300FFC4540F5401540125E0FFE433FE9001F7
:100C830036E0FCA3E0F5828C83C083C082E0FCA342
:100C9300E054FDFDEC4EFEED4FFFD082D083EEF02D
:100CA300A3EFF0900138E0FFC4540F54017E0054C9
:100CB300017802C333CE33CED8F9FF900136E0FC7E
:100CC300A3E0F5828C83C083C082E0FCA3E054FBE5
:100CD300FDEC4EFEED4FFFD082D083EEF0A3EFF09C
:100CE300900138E0FFC4540F54017E00540178038F
:100CF300C333CE33CED8F9FF900136E0FCA3E0F541
:100D0300828C83C083C082E0FCA3E054F7FDEC4EE9
:100D1300FEED4FFFD082D083EEF0A3EFF0900138C9
:100D2300E0FFC4540F54015401C4F8540FC868FFC2
:100D3300E4C454F048FE900136E0FCA3E0F5828C55
:100D430083C083C082E0FCA3E054EFFDEC4EFEEDD4
:100D53004FFFD082D083EEF0A3EFF0900138E0FF95
:100D6300C4540F54017E0054017805C333CE33CEEF
:100D7300D8F9FF900136E0FCA3E0F5828C83C083B1
:100D8300C082E0FCA3E054DFFDEC4EFEED4FFFD04C
:100D930082D083EEF0A3EFF0900138E0FFC4540F4C
:100DA30054017E0054017806C333CE33CED8F9FF05
:100DB300900136E0FCA3E0F5828C83C083C082E01F
:100DC300FCA3E054BFFDEC4EFEED4FFFD082D08379
:100DD300EEF0A3EFF0900138E0FFC4540F54017E0E
:100DE3000054017807C333CE33CED8F9FF900136D0
:100DF300E0FCA3E0F5828C83C083C082E0FCA3E027
:100E0300547FFDEC4EFEED4FFFD082D083EEF0A376
:100E1300EFF0900138E0FFC4540F54015401FE90E9
:100E23000136E0FCA3E0F5828C83C083C082E0FC42
:100E3300A3E0FDEC54FE4EFEEDFFD082D083EEF036
:100E4300A3EFF0900138E0FFC4540F54015401257F
:100E5300E0FE900136E0FCA3E0F5828C83C083C002
:100E630082E0FCA3E0FDEC54FD4EFEEDFFD082D00A
:100E730083EEF0A3EFF0900138E0FFC4540F540168
:100E8300540125E025E0FE900136E0FCA3E0F58265
:100E93008C83C083C082E0FCA3E0FDEC54FB4EFED8
:100EA300EDFFD082D083EEF0A3EFF0900138E0FFA6
:100EB300C4540F5401540133333354F8FE900136B4
:100EC300E0FCA3E0F5828C83C083C082E0FCA3E056
:100ED300FDEC54F74EFEEDFFD082D083EEF0A3EF8E
:100EE300F012533D02277A900205E0640560030285
:100EF30011E5D2DAD2D9D285D284D283D282D281F9
:100F0300C280D2F9D2F8D2D8D2CBD2CAD2B7D2B613
:100F1300D2B1FE7F02FD900136E0FAA3E0F97B0136
:100F2300123766900138E020E5030211DFE0FFC4C9
:100F330013540754015401FF900136E0FCA3E0F57C
:100F4300828C83C083C082E0FCA3E054FEFDECFEF0
:100F5300ED4FFFD082D083EEF0A3EFF0900138E0A5
:100F6300FFC41354075401540125E0FFE433FE90FA
:100F73000136E0FCA3E0F5828C83C083C082E0FCF1
:100F8300A3E054FDFDEC4EFEED4FFFD082D083EE87
:100F9300F0A3EFF0900138E0FFC413540754017E2F
:100FA3000054017802C333CE33CED8F9FF90013613
:100FB300E0FCA3E0F5828C83C083C082E0FCA3E065
:100FC30054FBFDEC4EFEED4FFFD082D083EEF0A339
:100FD300EFF0900138E0FFC413540754017E00542E
:100FE300017803C333CE33CED8F9FF900136E0FC4A
:100FF300A3E0F5828C83C083C082E0FCA3E054F7B6
:10100300FDEC4EFEED4FFFD082D083EEF0A3EFF068
:10101300900138E0FFC413540754015401C4F85439
:101023000FC868FFE4C454F048FE900136E0FCA307
:10103300E0F5828C83C083C082E0FCA3E054EFFD23
:10104300EC4EFEED4FFFD082D083EEF0A3EFF09095
:101053000138E0FFC413540754017E00540178059E
:10106300C333CE33CED8F9FF900136E0FCA3E0F5CD
:10107300828C83C083C082E0FCA3E054DFFDEC4E8E
:10108300FEED4FFFD082D083EEF0A3EFF090013856
:10109300E0FFC413540754017E0054017806C333A0
:1010A300CE33CED8F9FF900136E0FCA3E0F5828C75
:1010B30083C083C082E0FCA3E054BFFDEC4EFEED91
:1010C3004FFFD082D083EEF0A3EFF0900138E0FF22
:1010D300C413540754017E0054017807C333CE333D
:1010E300CED8F9FF900136E0FCA3E0F5828C83C0F3
:1010F30083C082E0FCA3E0547FFDEC4EFEED4FFF86
:10110300D082D083EEF0A3EFF0900138E0FFC41358
:10111300540754015401FE900136E0FCA3E0F5822C
:101123008C83C083C082E0FCA3E0FDEC54FE4EFE42
:10113300EDFFD082D083EEF0A3EFF0900138E0FF13
:10114300C41354075401540125E0FE900136E0FC1A
:10115300A3E0F5828C83C083C082E0FCA3E0FDECB6
:1011630054FD4EFEEDFFD082D083EEF0A3EFF0905E
:101173000138E0FFC41354075401540125E025E06E
:10118300FE900136E0FCA3E0F5828C83C083C0822D
:10119300E0FCA3E0FDEC54FB4EFEEDFFD082D083D8
:1011A300EEF0A3EFF0900138E0FFC41354075401AD
:1011B300540133333354F8FE900136E0FCA3E0F5D9
:1011C300828C83C083C082E0FCA3E0FDEC54F74E25
:1011D300FEEDFFD082D083EEF0A3EFF012533D0279
:1011E300277A900205E0640660030214ECD2DAD297
:1011F300D9D285D284D283D282D281D280C2F9D28B
:10120300F8D2D8D2CBD2CAD2B7D2B6D2B1FE7F02ED
:10121300FD900136E0FAA3E0F97B011237669001F5
:1012230038E020E6030214E6E0FFC413135403542A
:10123300015401FF900136E0FCA3E0F5828C83C0EA
:1012430083C082E0FCA3E054FEFDECFEED4FFFD033
:1012530082D083EEF0A3EFF0900138E0FFC41313C4
:1012630054035401540125E0FFE433FE900136E0BA
:10127300FCA3E0F5828C83C083C082E0FCA3E0542E
:10128300FDFDEC4EFEED4FFFD082D083EEF0A3EFD9
:10129300F0900138E0FFC41313540354017E00544B
:1012A300017802C333CE33CED8F9FF900136E0FC88
:1012B300A3E0F5828C83C083C082E0FCA3E054FBEF
:1012C300FDEC4EFEED4FFFD082D083EEF0A3EFF0A6
:1012D300900138E0FFC41313540354017E005401FA
:1012E3007803C333CE33CED8F9FF900136E0FCA3A5
:1012F300E0F5828C83C083C082E0FCA3E054F7FD59
:10130300EC4EFEED4FFFD082D083EEF0A3EFF090D2
:101313000138E0FFC41313540354015401C4F854B7
:101323000FC868FFE4C454F048FE900136E0FCA304
:10133300E0F5828C83C083C082E0FCA3E054EFFD20
:10134300EC4EFEED4FFFD082D083EEF0A3EFF09092
:101353000138E0FFC41313540354017E0054017891
:1013630005C333CE33CED8F9FF900136E0FCA3E0BA
:10137300F5828C83C083C082E0FCA3E054DFFDECE4
:101383004EFEED4FFFD082D083EEF0A3EFF090013D
:1013930038E0FFC41313540354017E00540178064C
:1013A300C333CE33CED8F9FF900136E0FCA3E0F58A
:1013B300828C83C083C082E0FCA3E054BFFDEC4E6B
:1013C300FEED4FFFD082D083EEF0A3EFF090013813
:1013D300E0FFC41313540354017E0054017807C380
:1013E30033CE33CED8F9FF900136E0FCA3E0F5828B
:1013F3008C83C083C082E0FCA3E0547FFDEC4EFEEF
:10140300ED4FFFD082D083EEF0A3EFF0900138E0F0
:10141300FFC41313540354015401FE900136E0FC3E
:10142300A3E0F5828C83C083C082E0FCA3E0FDECE3
:1014330054FE4EFEEDFFD082D083EEF0A3EFF0908A
:101443000138E0FFC4131354035401540125E0FE93
:10145300900136E0FCA3E0F5828C83C083C082E078
:10146300FCA3E0FDEC54FD4EFEEDFFD082D083EEF5
:10147300F0A3EFF0900138E0FFC4131354035401B9
:10148300540125E025E0FE900136E0FCA3E0F5825F
:101493008C83C083C082E0FCA3E0FDEC54FB4EFED2
:1014A300EDFFD082D083EEF0A3EFF0900138E0FFA0
:1014B300C4131354035401540133333354F8FE90CB
:1014C3000136E0FCA3E0F5828C83C083C082E0FC9C
:1014D300A3E0FDEC54F74EFEEDFFD082D083EEF097
:1014E300A3EFF012533D02277A900205E0640760F0
:1014F300030217FFD2DAD2D9D285D284D283D28221
:10150300D281D280D2F9C2F8D2D8D2CBD2CAD2B742
:10151300D2B6D2B1FE7F02FD900136E0FAA3E0F924
:101523007B01123766900138E020E7030217F9E0E8
:10153300FFC4131313540154015401FF900136E007
:10154300FCA3E0F5828C83C083C082E0FCA3E0545B
:10155300FEFDECFEED4FFFD082D083EEF0A3EFF063
:10156300900138E0FFC413131354015401540125AF
:10157300E0FFE433FE900136E0FCA3E0F5828C83C8
:10158300C083C082E0FCA3E054FDFDEC4EFEED4FB2
:10159300FFD082D083EEF0A3EFF0900138E0FFC4D8
:1015A300131313540154017E0054017802C333CE44
:1015B30033CED8F9FF900136E0FCA3E0F5828C83AB
:1015C300C083C082E0FCA3E054FBFDEC4EFEED4F74
:1015D300FFD082D083EEF0A3EFF0900138E0FFC498
:1015E300131313540154017E0054017803C333CE03
:1015F30033CED8F9FF900136E0FCA3E0F5828C836B
:10160300C083C082E0FCA3E054F7FDEC4EFEED4F37
:10161300FFD082D083EEF0A3EFF0900138E0FFC457
:10162300131313540154015401C4F8540FC868FF31
:10163300E4C454F048FE900136E0FCA3E0F5828C4C
:1016430083C083C082E0FCA3E054EFFDEC4EFEEDCB
:101653004FFFD082D083EEF0A3EFF0900138E0FF8C
:10166300C4131313540154017E0054017805C3338A
:10167300CE33CED8F9FF900136E0FCA3E0F5828C9F
:1016830083C083C082E0FCA3E054DFFDEC4EFEED9B
:101693004FFFD082D083EEF0A3EFF0900138E0FF4C
:1016A300C4131313540154017E0054017806C33349
:1016B300CE33CED8F9FF900136E0FCA3E0F5828C5F
:1016C30083C083C082E0FCA3E054BFFDEC4EFEED7B
:1016D3004FFFD082D083EEF0A3EFF0900138E0FF0C
:1016E300C4131313540154017E0054017807C33308
:1016F300CE33CED8F9FF900136E0FCA3E0F5828C1F
:1017030083C083C082E0FCA3E0547FFDEC4EFEED7A
:101713004FFFD082D083EEF0A3EFF0900138E0FFCB
:10172300C4131313540154015401FE900136E0FC19
:10173300A3E0F5828C83C083C082E0FCA3E0FDECD0
:1017430054FE4EFEEDFFD082D083EEF0A3EFF09077
:101753000138E0FFC413131354015401540125E06D
:10176300FE900136E0FCA3E0F5828C83C083C08247
:10177300E0FCA3E0FDEC54FD4EFEEDFFD082D083F0
:10178300EEF0A3EFF0900138E0FFC41313135401FC
:101793005401540125E025E0FE900136E0FCA3E06E
:1017A300F5828C83C083C082E0FCA3E0FDEC54FB94
:1017B3004EFEEDFFD082D083EEF0A3EFF090013820
:1017C300E0FFC4131313540154015401333333544E
:1017D300F8FE900136E0FCA3E0F5828C83C083C061
:1017E30082E0FCA3E0FDEC54F74EFEEDFFD082D087
:1017F30083EEF0A3EFF012533D02277A900205E047
:1018030064086003021ABED2DAD2D9D285D284D256
:1018130083D282D281D280D2F9D2F8C2D8D2CBD2AB
:10182300CAD2B7D2B6D2B1FE7F02FD900136E0FA3A
:10183300A3E0F97B01123766900139E020E003024F
:101843001AB8E054015401FF900136E0FCA3E0F51F
:10185300828C83C083C082E0FCA3E054FEFDECFED7
:10186300ED4FFFD082D083EEF0A3EFF0900139E08B
:101873005401540125E0FFE433FE900136E0FCA35C
:10188300E0F5828C83C083C082E0FCA3E054FDFDBD
:10189300EC4EFEED4FFFD082D083EEF0A3EFF0903D
:1018A3000139E054017E0054017802C333CE33CEB4
:1018B300D8F9FF900136E0FCA3E0F5828C83C08366
:1018C300C082E0FCA3E054FBFDEC4EFEED4FFFD0E5
:1018D30082D083EEF0A3EFF0900139E054017E0053
:1018E30054017803C333CE33CED8F9FF900136E0E9
:1018F300FCA3E0F5828C83C083C082E0FCA3E054A8
:10190300F7FDEC4EFEED4FFFD082D083EEF0A3EF58
:10191300F0900139E054015401C4F8540FC868FF32
:10192300E4C454F048FE900136E0FCA3E0F5828C59
:1019330083C083C082E0FCA3E054EFFDEC4EFEEDD8
:101943004FFFD082D083EEF0A3EFF0900139E05443
:10195300017E0054017805C333CE33CED8F9FF900E
:101963000136E0FCA3E0F5828C83C083C082E0FCF7
:10197300A3E054DFFDEC4EFEED4FFFD082D083EEAB
:10198300F0A3EFF0900139E054017E005401780692
:10199300C333CE33CED8F9FF900136E0FCA3E0F594
:1019A300828C83C083C082E0FCA3E054BFFDEC4E75
:1019B300FEED4FFFD082D083EEF0A3EFF09001391C
:1019C300E054017E0054017807C333CE33CED8F9F7
:1019D300FF900136E0FCA3E0F5828C83C083C082D4
:1019E300E0FCA3E0547FFDEC4EFEED4FFFD082D030
:1019F30083EEF0A3EFF0900139E054015401FE901F
:101A03000136E0FCA3E0F5828C83C083C082E0FC56
:101A1300A3E0FDEC54FE4EFEEDFFD082D083EEF04A
:101A2300A3EFF0900139E05401540125E0FE900149
:101A330036E0FCA3E0F5828C83C083C082E0FCA384
:101A4300E0FDEC54FD4EFEEDFFD082D083EEF0A31B
:101A5300EFF0900139E05401540125E025E0FE90B8
:101A63000136E0FCA3E0F5828C83C083C082E0FCF6
:101A7300A3E0FDEC54FB4EFEEDFFD082D083EEF0ED
:101A8300A3EFF0900139E05401540133333354F898
:101A9300FE900136E0FCA3E0F5828C83C083C08214
:101AA300E0FCA3E0FDEC54F74EFEEDFFD082D083C3
:101AB300EEF0A3EFF012533D02277A900205E064A3
:101AC300096003021CE3C2DAD2D9D285D284D2835D
:101AD300D282D281D280D2F9D2F8D2D8D2CBD2CA92
:101AE300D2B7D2B6D2B1FE7F02FD900136E0FAA39F
:101AF300E0F97B0112376690013BE074FF7003024B
:101B03001CDDE054015401FF900136E0FCA3E0F535
:101B1300828C83C083C082E0FCA3E054FEFDECFE14
:101B2300ED4FFFD082D083EEF0A3EFF090013BE0C6
:101B3300FFC3135401540125E0FFE433FE90013643
:101B4300E0FCA3E0F5828C83C083C082E0FCA3E0C9
:101B530054FDFDEC4EFEED4FFFD082D083EEF0A39B
:101B6300EFF090013BE0FF1313543F54017E005408
:101B7300017802C333CE33CED8F9FF900136E0FCAF
:101B8300A3E0F5828C83C083C082E0FCA3E054FB16
:101B9300FDEC4EFEED4FFFD082D083EEF0A3EFF0CD
:101BA30090013BE0FF131313541F54017E005401B3
:101BB3007803C333CE33CED8F9FF900136E0FCA3CC
:101BC300E0F5828C83C083C082E0FCA3E054F7FD80
:101BD300EC4EFEED4FFFD082D083EEF0A3EFF090FA
:101BE300013BE0FFC4540F54015401C4F8540FC81F
:101BF30068FFE4C454F048FE900136E0FCA3E0F52E
:101C0300828C83C083C082E0FCA3E054EFFDEC4EE2
:101C1300FEED4FFFD082D083EEF0A3EFF090013BB7
:101C2300E0FFC413540754017E0054017805C33305
:101C3300CE33CED8F9FF900136E0FCA3E0F5828CD9
:101C430083C083C082E0FCA3E054DFFDEC4EFEEDD5
:101C53004FFFD082D083EEF0A3EFF090013BE0FF83
:101C6300C41313540354017E0054017806C333CEC6
:101C730033CED8F9FF900136E0FCA3E0F5828C83E4
:101C8300C083C082E0FCA3E054BFFDEC4EFEED4FE9
:101C9300FFD082D083EEF0A3EFF090013BE0FFC4CE
:101CA300131313540154017E0054017807C333CE38
:101CB30033CED8F9FF900136E0FCA3E0F5828C83A4
:101CC300C083C082E0FCA3E0547FFDEC4EFEED4FE9
:101CD300FFD082D083EEF0A3EFF012533D02277AB8
:101CE300900205E0640A6003021F67D2DAC2D9D208
:101CF30085D284D283D282D281D280D2F9D2F8D251
:101D0300D8D2CBD2CAD2B7D2B6D2B1FE7F02FD901F
:101D13000136E0FAA3E0F97B0112376690013CE05B
:101D230074FF7003021F61E054015401FF900136F8
:101D3300E0FCA3E0F5828C83C083C082E0FCA3E0D7
:101D430054FEFDECFEED4FFFD082D083EEF0A3EF07
:101D5300F090013CE0FFC3135401540125E0FFE47C
:101D630033FE900136E0FCA3E0F5828C83C083C090
:101D730082E0FCA3E054FDFDEC4EFEED4FFFD0826C
:101D8300D083EEF0A3EFF090013CE0FF1313543F38
:101D930054017E0054017802C333CE33CED8F9FF09
:101DA300900136E0FCA3E0F5828C83C083C082E01F
:101DB300FCA3E054FBFDEC4EFEED4FFFD082D0833D
:101DC300EEF0A3EFF090013CE0FF131313541F5404
:101DD300017E0054017803C333CE33CED8F9FF908C
:101DE3000136E0FCA3E0F5828C83C083C082E0FC73
:101DF300A3E054F7FDEC4EFEED4FFFD082D083EE0F
:101E0300F0A3EFF090013CE0FFC4540F54015401E0
:101E1300C4F8540FC868FFE4C454F048FE90013678
:101E2300E0FCA3E0F5828C83C083C082E0FCA3E0E6
:101E330054EFFDEC4EFEED4FFFD082D083EEF0A3C6
:101E4300EFF090013CE0FFC413540754017E0054AB
:101E5300017805C333CE33CED8F9FF900136E0FCC9
:101E6300A3E0F5828C83C083C082E0FCA3E054DF4F
:101E7300FDEC4EFEED4FFFD082D083EEF0A3EFF0EA
:101E830090013CE0FFC41313540354017E0054013A
:101E93007806C333CE33CED8F9FF900136E0FCA3E6
:101EA300E0F5828C83C083C082E0FCA3E054BFFDD5
:101EB300EC4EFEED4FFFD082D083EEF0A3EFF09017
:101EC300013CE0FFC4131313540154017E00540179
:101ED3007807C333CE33CED8F9FF900136E0FCA3A5
:101EE300E0F5828C83C083C082E0FCA3E0547FFDD5
:101EF300EC4EFEED4FFFD082D083EEF0A3EFF090D7
:101F0300013AE054015401FE900136E0FCA3E0F5F0
:101F1300828C83C083C082E0FCA3E0FDEC54FE4EC0
:101F2300FEEDFFD082D083EEF0A3EFF090013AE014
:101F3300FFC3135401540125E0FE900136E0FCA3D6
:101F4300E0F5828C83C083C082E0FCA3E0FDEC5407
:101F5300FD4EFEEDFFD082D083EEF0A3EFF01253DF
:101F63003D02277A900205E0640B6003022052D2FF
:101F7300DAD2D9D285D284D283D282D281D280D20C
:101F8300F9D2F8D2D8D2CBC2CAD2B7D2B6D2B1FE26
:101F93007F02FD900136E0FAA3E0F97B0112376678
:101FA300900139E020E10302204CE0FFC313540108
:101FB3005401FF900136E0FCA3E0F5828C83C083DB
:101FC300C082E0FCA3E054FEFDECFEED4FFFD082A7
:101FD300D083EEF0A3EFF0900139E0FFC313540177
:101FE300540125E0FFE433FE900136E0FCA3E0F565
:101FF300828C83C083C082E0FCA3E054FDFDEC4EE1
:10200300FEED4FFFD082D083EEF0A3EFF0900139C5
:10201300E0FFC31354017E0054017802C333CE336F
:10202300CED8F9FF900136E0FCA3E0F5828C83C0A3
:1020330083C082E0FCA3E054FBFDEC4EFEED4FFFBA
:10204300D082D083EEF0A3EFF012533D02277A90B3
:102053000205E0640C6003022143D2DAD2D9D285AF
:10206300D284D283D282D281D280D2F9D2F8D2D88A
:10207300C2CBD2CAD2B7D2B6D2B1FE7F02FD900193
:1020830036E0FAA3E0F97B01123766900139E020CC
:10209300E20302213DE0FF1313543F54015401FFB7
:1020A300900136E0FCA3E0F5828C83C083C082E01C
:1020B300FCA3E054FEFDECFEED4FFFD082D083EE97
:1020C300F0A3EFF0900139E0FF1313543F54015490
:1020D3000125E0FFE433FE900136E0FCA3E0F58246
:1020E3008C83C083C082E0FCA3E054FDFDEC4EFE74
:1020F300ED4FFFD082D083EEF0A3EFF0900139E0F3
:10210300FF1313543F54017E0054017802C333CEAE
:1021130033CED8F9FF900136E0FCA3E0F5828C833F
:10212300C083C082E0FCA3E054FBFDEC4EFEED4F08
:10213300FFD082D083EEF0A3EFF012533D02277A53
:10214300900205E0640D6003022412D2DAD2D9D2E0
:1021530085D284D283D282D281D280D2F9D2F8D2EC
:10216300D8D2CBD2CAC2B7D2B6D2B1FE7F02FD90CB
:102173000136E0FAA3E0F97B01123766900139E0FA
:1021830020E30302240CE0FF131313541F540154E0
:1021930001FF900136E0FCA3E0F5828C83C083C08D
:1021A30082E0FCA3E054FEFDECFEED4FFFD082D0B5
:1021B30083EEF0A3EFF0900139E0FF131313541FE4
:1021C3005401540125E0FFE433FE900136E0FCA303
:1021D300E0F5828C83C083C082E0FCA3E054FDFD64
:1021E300EC4EFEED4FFFD082D083EEF0A3EFF090E4
:1021F3000139E0FF131313541F54017E0054017877
:1022030002C333CE33CED8F9FF900136E0FCA3E00E
:10221300F5828C83C083C082E0FCA3E054FBFDEC19
:102223004EFEED4FFFD082D083EEF0A3EFF090018E
:1022330039E0FF131313541F54017E005401780334
:10224300C333CE33CED8F9FF900136E0FCA3E0F5DB
:10225300828C83C083C082E0FCA3E054F7FDEC4E84
:10226300FEED4FFFD082D083EEF0A3EFF090013963
:10227300E0FF131313541F54015401C4F8540FC83F
:1022830068FFE4C454F048FE900136E0FCA3E0F597
:10229300828C83C083C082E0FCA3E054EFFDEC4E4C
:1022A300FEED4FFFD082D083EEF0A3EFF090013923
:1022B300E0FF131313541F54017E0054017805C328
:1022C30033CE33CED8F9FF900136E0FCA3E0F5829C
:1022D3008C83C083C082E0FCA3E054DFFDEC4EFEA0
:1022E300ED4FFFD082D083EEF0A3EFF0900139E001
:1022F300FF131313541F54017E0054017806C33394
:10230300CE33CED8F9FF900136E0FCA3E0F5828C02
:1023130083C083C082E0FCA3E054BFFDEC4EFEED1E
:102323004FFFD082D083EEF0A3EFF0900139E0FFAE
:10233300131313541F54017E0054017807C333CE83
:1023430033CED8F9FF900136E0FCA3E0F5828C830D
:10235300C083C082E0FCA3E0547FFDEC4EFEED4F52
:10236300FFD082D083EEF0A3EFF0900139E0FF13AA
:102373001313541F54015401FE900136E0FCA3E0F3
:10238300F5828C83C083C082E0FCA3E0FDEC54FEA5
:102393004EFEEDFFD082D083EEF0A3EFF090013933
:1023A300E0FF131313541F5401540125E0FE900161
:1023B30036E0FCA3E0F5828C83C083C082E0FCA3FB
:1023C300E0FDEC54FD4EFEEDFFD082D083EEF0A392
:1023D300EFF0900139E0FF131313541F540154011C
:1023E30025E025E0FE900136E0FCA3E0F5828C8336
:1023F300C083C082E0FCA3E0FDEC54FB4EFEEDFF86
:10240300D082D083EEF0A3EFF012533D02277A90EF
:102413000205E0640E60030226CBD2DAD2D9D2855C
:10242300D284D283D282D281D280D2F9D2F8D2D8C6
:10243300D2CBD2CAD2B7C2B6D2B1FE7F02FD9001CF
:1024430036E0FAA3E0F97B01123766900139E02008
:10245300E4030226C5E0FFC4540F54015401FF9066
:102463000136E0FCA3E0F5828C83C083C082E0FCEC
:10247300A3E054FEFDECFEED4FFFD082D083EEF0DF
:10248300A3EFF0900139E0FFC4540F540154012528
:10249300E0FFE433FE900136E0FCA3E0F5828C8399
:1024A300C083C082E0FCA3E054FDFDEC4EFEED4F83
:1024B300FFD082D083EEF0A3EFF0900139E0FFC4A8
:1024C300540F54017E0054017802C333CE33CED867
:1024D300F9FF900136E0FCA3E0F5828C83C083C052
:1024E30082E0FCA3E054FBFDEC4EFEED4FFFD082F7
:1024F300D083EEF0A3EFF0900139E0FFC4540F5402
:10250300017E0054017803C333CE33CED8F9FF9054
:102513000136E0FCA3E0F5828C83C083C082E0FC3B
:10252300A3E054F7FDEC4EFEED4FFFD082D083EED7
:10253300F0A3EFF0900139E0FFC4540F54015401AC
:10254300C4F8540FC868FFE4C454F048FE90013641
:10255300E0FCA3E0F5828C83C083C082E0FCA3E0AF
:1025630054EFFDEC4EFEED4FFFD082D083EEF0A38F
:10257300EFF0900139E0FFC4540F54017E00540181
:102583007805C333CE33CED8F9FF900136E0FCA3F0
:10259300E0F5828C83C083C082E0FCA3E054DFFDBE
:1025A300EC4EFEED4FFFD082D083EEF0A3EFF09020
:1025B3000139E0FFC4540F54017E0054017806C36F
:1025C30033CE33CED8F9FF900136E0FCA3E0F58299
:1025D3008C83C083C082E0FCA3E054BFFDEC4EFEBD
:1025E300ED4FFFD082D083EEF0A3EFF0900139E0FE
:1025F300FFC4540F54017E0054017807C333CE3314
:10260300CED8F9FF900136E0FCA3E0F5828C83C0BD
:1026130083C082E0FCA3E0547FFDEC4EFEED4FFF50
:10262300D082D083EEF0A3EFF0900139E0FFC454E1
:102633000F54015401FE900136E0FCA3E0F5828CB7
:1026430083C083C082E0FCA3E0FDEC54FE4EFEEDAC
:10265300FFD082D083EEF0A3EFF0900139E0FFC406
:10266300540F5401540125E0FE900136E0FCA3E031
:10267300F5828C83C083C082E0FCA3E0FDEC54FDB3
:102683004EFEEDFFD082D083EEF0A3EFF090013940
:10269300E0FFC4540F5401540125E025E0FE9001EE
:1026A30036E0FCA3E0F5828C83C083C082E0FCA308
:1026B300E0FDEC54FB4EFEEDFFD082D083EEF0A3A1
:1026C300EFF012533D02277A900205E0640F600396
:1026D30002277AD2DAD2D9D285D284D283D282D2D5
:1026E30081D280D2F9D2F8D2D8D2CBD2CAD2B7D241
:1026F300B6C2B1FE7F02FD900136E0FAA3E0F97B9A
:1027030001123766900139E044606068E0FFC4134A
:10271300540754015401FF900136E0FCA3E0F58215
:102723008C83C083C082E0FCA3E054FEFDECFEED8D
:102733004FFFD082D083EEF0A3EFF0900139E0FF9A
:10274300C4131354035401540125E0FFE433FE90F2
:102753000136E0FCA3E0F5828C83C083C082E0FCF9
:10276300A3E054FDFDEC4EFEED4FFFD082D083EE8F
:10277300F0A3EFF012533D900205E004F0E0C394A0
:10278300104002E4F0229001BEEFF0A3ECF0A3EDC1
:10279300F0E4A3F0A31236FB000000009001C61280
:1027A30036FB000000009001CA1236FB0000000057
:1027B3009001BFE0FEA3E0FFE4FCFD9001CA1236E6
:1027C300EF9001BEE025E024F3F582E43400F583C5
:1027D300E0FEA3E0FFFBAA06E49001BEE025E024AF
:1027E300B5F582E43400F583E0FEA3E0FFE4C3EF34
:1027F3009BFFEE9AFEE49400FDE49400FC9001C27A
:102803001236EF9001BEE02475F582E43400F583BF
:10281300E0C3942050629001BEE02475F582E43455
:1028230000F583E0F9E47F01FEFDFCA8011236DC2C
:102833009000B0E0F8A3E0F9A3E0FAA3E05FFFEEB5
:102843005AFEED59FDEC58FC4D4E4F70030228DA49
:10285300E47F08FEFDFC9001CAE0F8A3E0F9A3E0E1
:10286300FAA3E0FB123556E47B0AFAF9F81250B2E8
:102873009001CA1236EF805F9001BEE02475F582A5
:10288300E43400F583E024E0F9E47F01FEFDFCA8D5
:10289300011236DC9000AAE0F8A3E0F9A3E0FAA362
:1028A300E05FFFEE5AFEED59FDEC58FC4D4E4F60D4
:1028B30026E47F08FEFDFC9001CAE0F8A3E0F9A33B
:1028C300E0FAA3E0FB123556E47B0AFAF9F812505A
:1028D300B29001CA1236EFE4FFFEFDFC9001C2E0A4
:1028E300F8A3E0F9A3E0FAA3E0FBC312368E50038A
:1028F300022C5AE47F06FEFDFC9001CAE0F8A3E037
:10290300F9A3E0FAA3E0FB123556E47B0AFAF9F8DF
:102913001250B29001C2E0F8A3E0F9A3E0FAA3E0F9
:10292300FBC312368E40030230B79001BFE0FEA313
:10293300E025E0FFEE33FE7C007D0A12350AEE331C
:1029430095E0FDFC9001C2E0F8A3E0A3E0A3E0C39F
:1029530012368E5003022B349001BEE0245BF582C5
:10296300E43400F583E004F09001BEE0240DF58229
:10297300E43400F583E4F09001BEE0244EF582E4F4
:102983003400F583E4F09001BEE02400F582E434E2
:1029930000F583E4F09001BEE02468F582E434009E
:1029A300F583E4F09001BEE0245BF582E43400F5A6
:1029B30083E0C3941E50030230B79001BEE0245B52
:1029C300F582E43400F583E4F09001BEE02475F56C
:1029D30082E43400F583E0C394204003022A8A9002
:1029E30001BEE02475F582E43400F583E0F9E47F69
:1029F30001FEFDFCA8011236DCEFEEED4C4E4F70EC
:102A0300030230B79001BFE0FEA3E025E0FFEE3301
:102A1300FE7C007D0A12350A7C007D0512350A9082
:102A230001BEE025E024B5F582E43400F583E0FC43
:102A3300A3E0C39FEC9E50030230B79001BEE02594
:102A4300E024B5F582E43400F583C083C082E0FE60
:102A5300A3E0FFC006C007E47B05FAF9F89001C2C2
:102A6300E0FCA3E0FDA3E0FEA3E0FF1250B2AD073C
:102A7300AC06D007D006C3EF9DFFEE9CD082D08377
:102A8300F0A3EFF00230B79001BEE02475F582E4C5
:102A93003400F583E024E0F9E47F01FEFDFCA801A6
:102AA3001236DCEFEEED4C4E4F70030230B790015F
:102AB300BFE0FEA3E025E0FFEE33FE7C007D0A12BB
:102AC300350A7C007D0512350A9001BEE025E0241D
:102AD300B5F582E43400F583E0FCA3E0C39FEC9EEC
:102AE30050030230B79001BEE025E024B5F582E43F
:102AF3003400F583C083C082E0FEA3E0FFC006C0BC
:102B030007E47B05FAF9F89001C2E0FCA3E0FDA31A
:102B1300E0FEA3E0FF1250B2AD07AC06D007D0062B
:102B2300C3EF9DFFEE9CD082D083F0A3EFF0023081
:102B3300B79001BEE0245BF582E43400F583E4F052
:102B43009001BEE0240DF582E43400F583E004F047
:102B53009001BEE0244EF582E43400F583E4F09066
:102B630001BEE02400F582E43400F583E4F0900133
:102B7300BEE02468F582E43400F583E4F09001BEFE
:102B8300E0240DF582E43400F583E0C3940A500396
:102B93000230B79001BEE0240DF582E43400F583E2
:102BA300E4F09001BEE02475F582E43400F583E09F
:102BB300C3942050509001BEE02475F582E43400A4
:102BC300F583E0F9E47F01FEFDFCA8011236DCEF9A
:102BD300EEED4C4E4F70030230B79001BEE025E09E
:102BE30024F3F582E43400F583E0FEA3E0FF9001D3
:102BF300BEE025E024B5F582E43400F583EEF0A3CE
:102C0300EFF00230B79001BEE02475F582E43400A2
:102C1300F583E024E0F9E47F01FEFDFCA801123610
:102C2300DCEFEEED4C4E4F70030230B79001BEE087
:102C330025E024F3F582E43400F583E0FEA3E0FF0E
:102C43009001BEE025E024B5F582E43400F583EE7F
:102C5300F0A3EFF00230B79001BFE0FEA3E025E060
:102C6300FFEE33FE7C007D0A12350AC3E49FFFE4C6
:102C73009EFE3395E0FDFC9001C2E0F8A3E0F9A3CA
:102C8300E0FAA3E0FBC312368E5003022DB7900186
:102C9300BEE0245BF582E43400F583E4F09001BEEA
:102CA300E0240DF582E43400F583E4F09001BEE006
:102CB300244EF582E43400F583E004F09001BEE095
:102CC3002400F582E43400F583E4F09001BEE024AF
:102CD30068F582E43400F583E4F09001BEE0244E0D
:102CE300F582E43400F583E0C3940A50030230B75D
:102CF3009001BEE0244EF582E43400F583E4F090C5
:102D030001BEE02475F582E43400F583E0C394202A
:102D130050509001BEE02475F582E43400F583E061
:102D2300F9E47F01FEFDFCA8011236DCEFEEED4C69
:102D33004E4F70030230B79001BEE025E024F3F557
:102D430082E43400F583E0FEA3E0FF9001BEE025BA
:102D5300E024B5F582E43400F583EEF0A3EFF0024E
:102D630030B79001BEE02475F582E43400F583E0CA
:102D730024E0F9E47F01FEFDFCA8011236DCEFEE4E
:102D8300ED4C4E4F70030230B79001BEE025E024B6
:102D9300F3F582E43400F583E0FEA3E0FF9001BE87
:102DA300E025E024B5F582E43400F583EEF0A3EFEB
:102DB300F00230B79001BFE0FEA3E0FF7C007D127C
:102DC3001234F87D0A12350AC3E49FFFE49EFE33F2
:102DD30095E0FDFC9001C2E0F8A3E0F9A3E0FAA3BB
:102DE300E0FBC312368E5003022F569001BEE0243F
:102DF3005BF582E43400F583E4F09001BEE0240D3A
:102E0300F582E43400F583E4F09001BEE0244EF54E
:102E130082E43400F583E4F09001BEE02400F582FF
:102E2300E43400F583E004F09001BEE02468F58209
:102E3300E43400F583E4F09001BEE02400F582E47D
:102E43003400F583E0C3940550030230B79001BE0C
:102E5300E02400F582E43400F583E4F09001BEE061
:102E63002475F582E43400F583E0C3942050719017
:102E730001BEE02475F582E43400F583E0F9E47FD4
:102E830001FEFDFCA8011236DCEFEEED4C4E4F7057
:102E9300030230B79001BEE025E024B5F582E434A7
:102EA30000F583C083C082E0FEA3E0FFC006C00735
:102EB300E47B02FAF9F89001C2E0FCA3E0FDA3E091
:102EC300FEA3E0FF1250B2AD07AC06D007D006C395
:102ED300EF9DFFEE9CD082D083F0A3EFF00230B7DA
:102EE3009001BEE02475F582E43400F583E024E02C
:102EF300F9E47F01FEFDFCA8011236DCEFEEED4C98
:102F03004E4F70030230B79001BEE025E024B5F5C3
:102F130082E43400F583C083C082E0FEA3E0FFC0F7
:102F230006C007E47B02FAF9F89001C2E0FCA3E0D3
:102F3300FDA3E0FEA3E0FF1250B2AD07AC06D0073D
:102F4300D006C3EF9DFFEE9CD082D083F0A3EFF0B9
:102F53000230B79001BEE0245BF582E43400F583D0
:102F6300E4F09001BEE0240DF582E43400F583E43F
:102F7300F09001BEE0244EF582E43400F583E4F0E2
:102F83009001BEE02400F582E43400F583E4F09080
:102F930001BEE02468F582E43400F583E004F09098
:102FA30001BEE02468F582E43400F583E0C3940AAB
:102FB30050030230B79001BEE02468F582E4340088
:102FC300F583E4F09001BEE02475F582E43400F566
:102FD30083E0C3942050709001BEE02475F582E431
:102FE3003400F583E0F9E47F01FEFDFCA80112360D
:102FF300DCEFEEED4C4E4F70030230B79001BEE0B4
:1030030025E024B5F582E43400F583C083C082E073
:10301300FEA3E0FFC006C007E47B05FAF9F89001C0
:10302300C2E0FCA3E0FDA3E0FEA3E0FF1250B2ADBB
:1030330007AC06D007D006C3EF9DFFEE9CD082D02D
:1030430083F0A3EFF0806D9001BEE02475F582E478
:103053003400F583E024E0F9E47F01FEFDFCA801E0
:103063001236DCEFEEED4C4E4F60499001BEE02589
:10307300E024B5F582E43400F583C083C082E0FE2A
:10308300A3E0FFC006C007E47B05FAF9F89001C28C
:10309300E0FCA3E0FDA3E0FEA3E0FF1250B2AD0706
:1030A300AC06D007D006C3EF9DFFEE9CD082D08341
:1030B300F0A3EFF0E4FFFEFDFC9001C2E0F8A3E013
:1030C300F9A3E0FAA3E0FBC312368E50030231F0FA
:1030D300E47F06FEFDFC9001CAE0F8A3E0F9A3E05B
:1030E300FAA3E0FB123556E47B0AFAF9F81250B260
:1030F3009001C2E0F8A3E0F9A3E0FAA3E0FBC31256
:10310300368E40030231DD9001BEE02475F582E482
:103113003400F583E0C394205057900127E0FCA3CB
:10312300E0FDA3E0FEA3E0FFC004C005C006C007A6
:103133009001BEE02475F582E43400F583E0F9E400
:103143007F01FEFDFCA8011236DC123673A804A928
:1031530005AA06AB07D007D006D005D004EF5BFF66
:10316300EE5AFEED59FDEC58FC9001271236EF8024
:1031730057900122E0FCA3E0FDA3E0FEA3E0FFC023
:1031830004C005C006C0079001BEE02475F582E4C3
:103193003400F583E024E0F9E47F01FEFDFCA8019F
:1031A3001236DC123673A804A905AA06AB07D007AA
:1031B300D006D005D004EF5BFFEE5AFEED59FDECCF
:1031C30058FC9001221236EF9001BEE0241AF582DA
:1031D300E43400F583E4F00232C09001BEE0241A27
:1031E300F582E43400F583E004F00232C09001BEBE
:1031F300E02475F582E43400F583E0C3942050574E
:10320300900127E0FCA3E0FDA3E0FEA3E0FFC004E0
:10321300C005C006C0079001BEE02475F582E43402
:1032230000F583E0F9E47F01FEFDFCA8011236DC22
:10323300123673A804A905AA06AB07D007D006D097
:1032430005D004EF5BFFEE5AFEED59FDEC58FC9000
:1032530001271236EF8057900122E0FCA3E0FDA383
:10326300E0FEA3E0FFC004C005C006C0079001BE96
:10327300E02475F582E43400F583E024E0F9E47F8B
:1032830001FEFDFCA8011236DC123673A804A90561
:10329300AA06AB07D007D006D005D004EF5BFFEE3C
:1032A3005AFEED59FDEC58FC9001221236EF9001C5
:1032B300BEE0241AF582E43400F583E4F09001BE05
:1032C300E0241AF582E43400F583E0D39406500336
:1032D3000234219001BEE02475F582E43400F583C5
:1032E300E0C3942040030233869000B0E0FCA3E0E7
:1032F300FDA3E0FEA3E0FFC004C005C006C0079025
:103303000127E0FCA3E0FDA3E0FEA3E0FFC004C0AF
:1033130005C006C0079001BEE02475F582E43400C1
:10332300F583E0F9E47F01FEFDFCA8011236DCA879
:1033330004A905AA06AB07D007D006D005D004EF31
:103343004BFFEE4AFEED49FDEC48FC900127123697
:10335300EFA804A905AA06AB07D007D006D005D06D
:1033630004EF4BFFEE4AFEED49FDEC48FC9000B044
:103373001236EF9001BEE0241AF582E43400F5839F
:10338300E4F0229000AAE0FCA3E0FDA3E0FEA3E0AA
:10339300FFC004C005C006C007900122E0FCA3E003
:1033A300FDA3E0FEA3E0FFC004C005C006C0079074
:1033B30001BEE02475F582E43400F583E024E0F9EE
:1033C300E47F01FEFDFCA8011236DCA804A905AACE
:1033D30006AB07D007D006D005D004EF4BFFEE4A6B
:1033E300FEED49FDEC48FC9001221236EFA804A93A
:1033F30005AA06AB07D007D006D005D004EF4BFFD4
:10340300EE4AFEED49FDEC48FC9000AA1236EF901F
:1034130001BEE0241AF582E43400F583E4F022755A
:10342300F020800E75F010800575F0087D007E0099
:103433007F003392D530D503123680EC334010EF42
:1034430033FFEE33FEED33FDEC33FCD5F0ED22E537
:10345300F0247EA2D513CC92E7CDCEFF22EDD2E7A6
:10346300CD33EC3392D524814006E4FFFEFDFC22EC
:10347300FCE4CFCECDCC24E0501174FF80EDC3CC5F
:1034830013CCCD13CDCE13CECF13CF0470F030D5E4
:10349300DE023680BB010CE58229F582E5833AF52D
:1034A30083E0225006E92582F8E622BBFE06E925E1
:1034B30082F8E222E58229F582E5833AF583E493F3
:1034C30022BB010689828A83F0225002F722BBFEC7
:1034D30001F322F8BB010DE58229F582E5833AF574
:1034E30083E8F0225006E92582C8F622BBFE05E9EF
:1034F3002582C8F222EF8DF0A4A8F0CF8CF0A42887
:10350300CE8DF0A42EFE22C2D5EC30E709B2D5E46D
:10351300C39DFDE49CFCEE30E715B2D5E4C39FFFE9
:10352300E49EFE123792C3E49DFDE49CFC800312EB
:10353300379230D507C3E49FFFE49EFE22C5F0F81F
:10354300A3E028F0C5F0F8E582158270021583E048
:1035530038F022E88FF0A4CC8BF0A42CFCE98EF099
:10356300A42CFC8AF0EDA42CFCEA8EF0A4CDA8F0E8
:103573008BF0A42DCC3825F0FDE98FF0A42CCD35AC
:10358300F0FCEB8EF0A4FEA9F0EB8FF0A4CFC5F016
:103593002ECD39FEE43CFCEAA42DCE35F0FDE43C0F
:1035A300FC2275F008758200EF2FFFEE33FECD335A
:1035B300CDCC33CCC58233C5829BED9AEC99E582A1
:1035C30098400CF582EE9BFEED9AFDEC99FC0FD52D
:1035D300F0D6E4CEFBE4CDFAE4CCF9A88222B8001D
:1035E300C1B90059BA002DEC8BF084CFCECDFCE5E8
:1035F300F0CBF97818EF2FFFEE33FEED33FDEC330C
:10360300FCEB33FB10D703994004EB99FB0FD8E590
:10361300E4F9FA227818EF2FFFEE33FEED33FDECD9
:1036230033FCC933C910D7059BE99A4007EC9BFCCF
:10363300E99AF90FD8E0E4C9FAE4CCFB2275F0105B
:10364300EF2FFFEE33FEED33FDCC33CCC833C81080
:10365300D7079BEC9AE899400AED9BFDEC9AFCE8AE
:1036630099F80FD5F0DAE4CDFBE4CCFAE4C8F922FB
:10367300CFF4CFCEF4CECDF4CDCCF4CC22C3E49FA3
:10368300FFE49EFEE49DFDE49CFC22EB9FF5F0EA43
:103693009E42F0E99D42F0EC6480C864809845F056
:1036A30022EB9FF5F0EA9E42F0E99D42F0E89C454B
:1036B300F022E8600FECC313FCED13FDEE13FEEFF5
:1036C30013FFD8F122E86010ECA2E713FCED13FD21
:1036D300EE13FEEF13FFD8F022E8600FEFC333FFC2
:1036E300EE33FEED33FDEC33FCD8F122ECF0A3ED29
:1036F300F0A3EEF0A3EFF022A8828583F0D083D06D
:1037030082123712123712123712123712E473E48D
:1037130093A3C583C5F0C583C8C582C8F0A3C58379
:10372300C5F0C583C8C582C822D083D082E4937014
:1037330012740193700DA3A393F8740193F5828817
:1037430083E4737402936C70127403936D700C743E
:1037530004936E70067405936F60DDA3A3A3A3A304
:10376300A380CAEF4E6012EF60010EEDBB010B891F
:10377300828A83F0A3DFFCDEFA2289F05007F7097F
:10378300DFFCA9F022BBFEFCF309DFFCA9F022BC9D
:10379300000BBE0029EF8DF084FFADF022E4CCF8DE
:1037A30075F008EF2FFFEE33FEEC33FCEE9DEC9843
:1037B3004005FCEE9DFE0FD5F0E9E4CEFD22EDF8C9
:1037C300F5F0EE8420D21CFEADF075F008EF2FFF6C
:1037D300ED33FD4007985006D5F0F222C398FD0F54
:1037E300D5F0EA229000B4E0C3940340030239F613
:1037F300759107900135E025E024F3F582E4340068
:10380300F583E0FEA3E0FFE4FCFD7B667A16F9F89E
:10381300D31236A440030238A8900135E075F002B4
:10382300A42427F582E5F03400F583E0FEA3E0C38A
:1038330094FFEE94015056900135E075F002A424F4
:1038430027F582E5F03400F583E475F00112354085
:10385300900135E075F002A42427F582E5F03400E9
:10386300F583E0A3E0F5CA53CC7F900135E075F012
:1038730002A42427F582E5F03400F583E0FEA3E0FB
:10388300EE5401C313E41342CC1251A62290013526
:10389300E004F0E0C3940D4008E4F09000B4F0D2EB
:1038A300001251A622900135E025E024F3F582E4CD
:1038B3003400F583E0FEA3E0FF900135E025E0242A
:1038C300B5F582E43400F583EEF0FEA3EFF0FF904C
:1038D3000135E075F002A4248FF582E5F03400F59C
:1038E30083EEF0A3EFF0900135E004F0E0C3940D14
:1038F300500302397E9000B4E094035003E004F0D7
:10390300E4900135F0E075F002A42427F582E5F098
:103913003400F583E0FEA3E0D39400EE9400405618
:10392300900135E075F002A42427F582E5F0340018
:10393300F58374FFF5F0123540900135E075F00220
:10394300A42427F582E5F03400F583E0A3E0F5CA6B
:1039530053CC7F900135E075F002A42427F582E56E
:10396300F03400F583E0FEA3E0EE5401C313E41347
:1039730042CC1251A6221251A68078900135E075EF
:10398300F002A42427F582E5F03400F583E0FEA3DA
:10399300E0D39400EE94004056900135E075F002B8
:1039A300A42427F582E5F03400F58374FFF5F012C3
:1039B3003540900135E075F002A42427F582E5F047
:1039C3003400F583E0A3E0F5CA53CC7F900135E0E2
:1039D30075F002A42427F582E5F03400F583E0FEB8
:1039E300A3E0EE5401C313E41342CC1251A62212F6
:1039F30051A6229000B4E0C394035003023B99758F
:103A03009107900135E025E024F3F582E43400F5D5
:103A130083E0FEA3E0FFE4FCFD7B667A16F9F8C3BE
:103A23001236A45003023AB7900135E075F002A4B0
:103A33002427F582E5F03400F583E0FEA3E0D39478
:103A430000EE94004056900135E075F002A424275F
:103A5300F582E5F03400F58374FFF5F012354090FC
:103A63000135E075F002A42427F582E5F03400F572
:103A730083E0A3E0F5CA53CC7F900135E075F002F3
:103A8300A42427F582E5F03400F583E0FEA3E0EEFD
:103A93005401C313E41342CC1251A622900135E022
:103AA30004F0E0C3940D4008E4F09000B4F0D200B9
:103AB3001251A622900135E025E024F3F582E43487
:103AC30000F583E0FEA3E0FF900135E025E024B597
:103AD300F582E43400F583EEF0FEA3EFF0FF9001EE
:103AE30035E075F002A4248FF582E5F03400F58308
:103AF300EEF0A3EFF0900135E004F0E0C3940D4045
:103B03001EE4F09000B4E094065003E004F090004B
:103B1300B4E0C394064004E4F0D2001251A622900C
:103B23000135E075F002A42427F582E5F03400F5B1
:103B330083E0FEA3E0C394FFEE9401505690013559
:103B4300E075F002A42427F582E5F03400F583E460
:103B530075F001123540900135E075F002A4242779
:103B6300F582E5F03400F583E0A3E0F5CA53CC7F9A
:103B7300900135E075F002A42427F582E5F03400C6
:103B8300F583E0FEA3E0EE5401C313E41342CC1229
:103B930051A6221251A6221245759001F1E0FCA311
:103BA300E0FDA3E0FEA3E0FFA3E0F8A3E0F9A3E0B8
:103BB300FAA3E0FBC31236A46003023C64FFFEFDDC
:103BC300FC9001F1E0F8A3E0F9A3E0FAA3E0FBC362
:103BD3001236A470099001FAF09001F9F0229001D5
:103BE300F9E0C394C85003E004F09001F9E06432B3
:103BF3006003023E847F01FEFDFC9001F5E0F8A323
:103C0300E0F9A3E0FAA3E0FBC31236A47006900127
:103C1300FA04F022E4FF7E02FDFC9001F5E0F8A334
:103C2300E0F9A3E0FAA3E0FBC31236A4700B900102
:103C3300F97414F0A37401F022E4FF7E04FDFC90F8
:103C430001F5E0F8A3E0F9A3E0FAA3E0FBC3123621
:103C5300A46003023E849001F97414F0A37401F08C
:103C630022E4FFFEFDFC9001F1E0F8A3E0F9A3E0FC
:103C7300FAA3E0FBC31236A4701BFFFEFDFC900108
:103C8300F5E0F8A3E0F9A3E0FAA3E0FBC31236A43E
:103C93006003023E62E4FFFEFDFC9001F1E0F8A345
:103CA300E0F9A3E0FAA3E0FBC31236A47003023EDB
:103CB30062E4FFFEFDFC9001F5E0F8A3E0F9A3E068
:103CC300FAA3E0FBC31236A46003023E629001F93B
:103CD300E0C394054003023E629001F5E0FCA3E0DB
:103CE300FDA3E0FEA3E0FF12372C3D3F00000001DF
:103CF3003D56000000023D6D000000043D840000BD
:103D030000083D9B000000103DB2000000203DC9AB
:103D1300000000403DE0000000803DF6000001008F
:103D23003E0C000002003E22000004003E3800006A
:103D330008003E4E0000100000003E629001F5E0D6
:103D4300FCA3E0FDA3E0FEA3E0FF9001F51236EF34
:103D5300023E629001F5E0FCA3E0FDA3E0FEA3E0D8
:103D6300FF9001F51236EF023E629001F5E0FCA3ED
:103D7300E0FDA3E0FEA3E0FF9001F51236EF023E63
:103D8300629001F5E0FCA3E0FDA3E0FEA3E0FF9059
:103D930001F51236EF023E629001F5E0FCA3E0FD6F
:103DA300A3E0FEA3E0FF9001F51236EF023E62901E
:103DB30001F5E0FCA3E0FDA3E0FEA3E0FF9001F525
:103DC3001236EF023E629001F5E0FCA3E0FDA3E0B2
:103DD300FEA3E0FF9001F51236EF023E629001F57B
:103DE300E0FCA3E0FDA3E0FEA3E0FF9001F51236A3
:103DF300EF806C9001F5E0FCA3E0FDA3E0FEA3E0FF
:103E0300FF9001F51236EF80569001F5E0FCA3E038
:103E1300FDA3E0FEA3E0FF9001F51236EF80409092
:103E230001F5E0FCA3E0FDA3E0FEA3E0FF9001F5B4
:103E33001236EF802A9001F5E0FCA3E0FDA3E0FE3B
:103E4300A3E0FF9001F51236EF80149001F5E0FC3A
:103E5300A3E0FDA3E0FEA3E0FF9001F51236EF908F
:103E630001F5E0FCA3E0FDA3E0FEA3E0FF9001F178
:103E73001236EFE49001F9F0A3F0900165E054FBF2
:103E8300F022C108410204005A002700FF0000008D
:103E9300000000000000000000000000000000001F
:103EA30000000000004D007500000000000000004D
:103EB30000000000004D0082000000000000000030
:103EC30000000000004D005B000000000000000047
:103ED30000000000004D000D000000000000000085
:103EE30000000000004D004E000000000000000034
:103EF30000000000004D0000000000000000000072
:103F030000000000004D00680000000000000000F9
:103F130000000000004D0041000000000000000010
:103F230000000000005A008F0000000000000000A5
:103F3300000000000000000000000000000000007E
:103F430000004D001A000000000000000000000007
:103F530000004101E2004101DC004101DE004201B9
:103F6300E075304201E300004201E500004101DD5C
:103F7300004101DF004101D9004101DA004101DBC9
:103F830000C106C107C1054201FC00004201FE0059
:103F9300004101FB004102000041020100602C00CE
:103FA300F30000000000000000000000000000001B
:103FB30000000000000000000000000000000000FE
:103FC30000000000000000000000000000602C0062
:103FD300B500010000000000000000000000000028
:103FE30000000000000000000000000000000000CE
:103FF300000000000000000000000000004100AECF
:1040030000410135004100B400C100C101C10242B9
:1040130000F100FF4400ED000000004400E900004F
:10402300000041012100C184C10342013300004467
:1040330000E5000000004400E1000000004400B07F
:10404300000000004400AA0000000044012F00000B
:10405300000044012B000000004401270000000081
:104063004401220000000042011F0000410126001C
:104073004100AF004100A90041020200410203C810
:1040830042013601EE6020018200000000000000C2
:10409300000000000000000000000000000000001D
:1040A3000000000000000000004101BC005401A218
:1040B30000000000000000000000000000000000FD
:1040C300000000004101BD004101B6004301B700FB
:1040D30000004201EE00004101E8004101EA004115
:1040E30001F0004101E9004101EC004101EB004115
:1040F30001E7004101ED00009001BEEFF0E02475FF
:10410300F582E43400F583E0C3942040030241F2D6
:104113009001BEE02475F582E43400F583E0F9E410
:104123007F01FEFDFCA8011236DC900127E0F8A315
:10413300E0F9A3E0FAA3E05FFFEE5AFEED59FDECD0
:1041430058FCE4FBFAF9F8C31236A460030241E019
:104153009001BEE02482F582E43400F583E004F0AC
:104163009001BEE02482F582E43400F583E0C39439
:104173000250030242CE9001BEE02482F582E43471
:1041830000F583E4F09000B0E0FCA3E0FDA3E0FEC3
:10419300A3E0FFC004C005C006C0079001BEE02431
:1041A30075F582E43400F583E0F9E47F01FEFDFC5C
:1041B300A8011236DC123673A804A905AA06AB07B8
:1041C300D007D006D005D004EF5BFFEE5AFEED59C1
:1041D300FDEC58FC9000B01236EF0242CE9001BEC7
:1041E300E02482F582E43400F583E4F00242CE90C9
:1041F30001BEE02475F582E43400F583E024E0F9A0
:10420300E47F01FEFDFCA8011236DC900122E0F8F8
:10421300A3E0F9A3E0FAA3E05FFFEE5AFEED59FD38
:10422300EC58FCE4FBFAF9F8C31236A4600302422B
:10423300BF9001BEE02482F582E43400F583E004FC
:10424300F09001BEE02482F582E43400F583E0C3FC
:10425300940240779001BEE02482F582E43400F5B5
:1042630083E4F09000AAE0FCA3E0FDA3E0FEA3E05A
:10427300FFC004C005C006C0079001BEE02475F569
:1042830082E43400F583E024E0F9E47F01FEFDFCE1
:10429300A8011236DC123673A804A905AA06AB07D7
:1042A300D007D006D005D004EF5BFFEE5AFEED59E0
:1042B300FDEC58FC9000AA1236EF800F9001BEE08F
:1042C3002482F582E43400F583E4F0E4FFFEFDFC90
:1042D300900127E0F8A3E0F9A3E0FAA3E0FBC312FF
:1042E30036A47018FFFEFDFC900122E0F8A3E0F96C
:1042F300A3E0FAA3E0FBC31236A4604290011FE0DF
:10430300FEA3E0C39488EE9413403A1250F6E4906F
:10431300011FF0A3F09001271236FB00000000906C
:1043230000B01236FB000000009001221236FB00A1
:104333000000009000AA1236FB0000000022E49067
:10434300011FF0A3F022C2AF1247329000EDE0FC50
:10435300A3E0FDA3E0FEA3E0FF78021236DCEF54F6
:10436300FCFFE4EF42EB9000EDE0FCA3E0FDA3E0F3
:10437300FEA3E0FF78021236B5EF5430FFE4EF42BC
:10438300EC9000EDE0FCA3E0FDA3E0FEA3E0FF78EA
:10439300041236B5EF54F0FFE4EF42EE9000EDE087
:1043A300FCA3E0FDA3E0FEA3E0FF780C1236B5EF1B
:1043B300E4EF42EF9000EDE0FCA3E0FDA3E0FEA3F9
:1043C300E0FF78141236B5EF540FFFE4EF42F2909A
:1043D30000EDE0FCA3E0FDA3E0FEA3E0FF781812EC
:1043E30036B5EFE4EF42F79000E9E0FCA3E0FDA36C
:1043F300E0FEA3E0540FFFE4EF42EA9000E9E0FCA3
:10440300A3E0FDA3E0FEA3E0FF78041236B5EF546A
:1044130003FFE4EF42EB9000E9E0FCA3E0FDA3E03F
:10442300FEA3E0FF78061236B5EF540FFFE4EF4228
:10443300EC9000E9E0FCA3E0FDA3E0FEA3E0FF783D
:10444300041236B5EF54C0FFE4EF42EC9000E9E00C
:10445300FCA3E0FDA3E0FEA3E0FF780C1236B5EF6A
:10446300540FFFE4EF42EE7596269000EDE0FCA3B7
:10447300E0FDA3E0FEA3E0FFE4EF429775962790EB
:1044830000EDE0FCA3E0FDA3E0FEA3E0FF7808124B
:1044930036B5EFE4EF42977596289000EDE0FCA364
:1044A300E0FDA3E0FEA3E0FF78101236B5EFE4EFE2
:1044B30042977596299000EDE0FCA3E0FDA3E0FE92
:1044C300A3E0FF78181236B5EFE4EF4297759651E3
:1044D3009000E9E0FCA3E0FDA3E0FEA3E0FFE4EF2E
:1044E30042977596529000E9E0FCA3E0FDA3E0FE3D
:1044F300A3E0FF78081236B5EFE4EF429753CBBF42
:1045030053ADDF53CD8F43CD4053CBC043CB3E534D
:10451300CDF343CD0453CCBF9000AEE0FFC433339F
:1045230054C0544042CC75962B5397C7439710758C
:10453300962B5397F8439705900027E0FEA3E0FFDF
:1045430012525953CDFD43CD0253CDFE43CD0153FA
:10455300C9FE75962D5397FD53CCC0900075E0545A
:104563003F42CC53F6DF43E62053C9FE43C901D291
:10457300AF229001F51236FB000000007F28124C99
:104583008CEF60199001F5E0FCA3E0FDA3E0FEA32E
:10459300E04401FFEEEDEC9001F51236EF7F2912B6
:1045A3004C8CEF60199001F5E0FCA3E0FDA3E0FE65
:1045B300A3E04402FFEEEDEC9001F51236EF7F0627
:1045C300124C8CEF60199001F5E0FCA3E0FDA3E031
:1045D300FEA3E04404FFEEEDEC9001F51236EF7F0D
:1045E30007124C8CEF60199001F5E0FCA3E0FDA3EA
:1045F300E0FEA3E04408FFEEEDEC9001F51236EF88
:104603007F27124C8CEF60199001F5E0FCA3E0FDCD
:10461300A3E0FEA3E04410FFEEEDEC9001F51236AB
:10462300EF7F26124C8CEF60199001F5E0FCA3E0BC
:10463300FDA3E0FEA3E04420FFEEEDEC9001F512B4
:1046430036EF7F05124C8CEF60199001F5E0FCA367
:10465300E0FDA3E0FEA3E04440FFEEEDEC9001F5A6
:104663001236EF7F1F124C8CEF60199001F5E0FCBE
:10467300A3E0FDA3E0FEA3E04480FFEEEDEC900198
:10468300F51236EF7F1E124C8CEF601A9001F5E0A5
:10469300FCA3E0FDA3E0FEA3E0FFEE4401FEEDEC8E
:1046A3009001F51236EF7F1D124C8CEF601A9001CA
:1046B300F5E0FCA3E0FDA3E0FEA3E0FFEE4402FE71
:1046C300EDEC9001F51236EF7F1B124C8CEF601A64
:1046D3009001F5E0FCA3E0FDA3E0FEA3E0FFEE44C0
:1046E30004FEEDEC9001F51236EF7F1C124C8CEFBB
:1046F300601A9001F5E0FCA3E0FDA3E0FEA3E0FF58
:10470300EE4408FEEDEC9001F51236EF7F10124CEB
:104713008CEF601A9001F5E0FCA3E0FDA3E0FEA39B
:10472300E0FFEE4410FEEDEC9001F51236EF22E4CB
:104733009001BEF0F09001BEE0C3940D4003024827
:104743006AE090536193FF9001BEE02475F582E423
:104753003400F583EFF09001BEE02475F582E43474
:1047630000F583E0C3942050549000EDE0FCA3E0F7
:10477300FDA3E0FEA3E0FFC004C005C006C0079090
:1047830001BEE02475F582E43400F583E0F9E47FAB
:1047930001FEFDFCA8011236DCA804A905AA06AB9C
:1047A30007D007D006D005D004EF4BFFEE4AFEED4D
:1047B30049FDEC48FC9000ED1236EF80549000E97F
:1047C300E0FCA3E0FDA3E0FEA3E0FFC004C005C03E
:1047D30006C0079001BEE02475F582E43400F5833A
:1047E300E024E0F9E47F01FEFDFCA8011236DCA819
:1047F30004A905AA06AB07D007D006D005D004EF5D
:104803004BFFEE4AFEED49FDEC48FC9000E9123601
:10481300EF9001BEE02475F582E43400F583E07582
:10482300F002A424EDF582E5F03453F583E493FE1E
:10483300740193FF9001BEE075F002A42427F58272
:10484300E5F03400F583EEF0A3EFF09001BEE02530
:10485300E024F3F582E43400F583E4F0A3F090015F
:10486300BEE004F002473822C0E0C0F0C083C0823B
:10487300C0D075D000C000C001C002C003C004C0D6
:1048830005C006C0079001D9E596F09001DCE0254C
:104893008CF58C9001DEE0258AF58A5388DFE4FDF0
:1048A300FF1200961251DCE4FFFEFDFC9000B0E025
:1048B300F8A3E0F9A3E0FAA3E0FBC31236A470184F
:1048C300FFFEFDFC9000AAE0F8A3E0F9A3E0FAA341
:1048D300E0FBC31236A46010900120E004F07006E0
:1048E30090011FE004F0800790011FE4F0A3F03073
:1048F30006349001FCE0FEA3E0C39410EE9427502D
:1049030025E004F070069001FCE004F09001FCE067
:10491300FEA3E0C39404EE9400400B9001FCE4F08A
:10492300A3F0C206D2073007269001FFE004F0701F
:10493300069001FEE004F09001FEE0FEA3E0C394C4
:1049430030EE947540099001FEE4F0A3F0C20790A5
:1049530001D9E0F596D007D006D005D004D003D016
:1049630002D001D000D0D0D082D083D0F0D0E032BA
:10497300C0E0C0F0C083C082C0D075D000C000C00A
:1049830001C002C003C004C005C006C0079000A94F
:10499300E596F053F1DF53C9FE900133E4F0A3F041
:1049A300900121E07065C2AFAFACEFFEADABEDFFA0
:1049B300900135E025E024F3F582E43400F583EE3D
:1049C300F0A3EFF0D2AF2000051237E7803D3004AB
:1049D3003A900135E004F0900135E02475F582E466
:1049E3003400F583E0B4FF1353C9FE900135E004AE
:1049F300F0E0C3940D40E0E4F0D201900135E0C350
:104A0300940D4004E4F0D2011251A69000A9E0F500
:104A130096D007D006D005D004D003D002D001D061
:104A230000D0D0D082D083D0F0D0E03278FFE4F64B
:104A3300D8FD9000007F007E10E4F0A3DFFCDEFAD7
:104A430075A000758121024A87025235E493A3F8C9
:104A5300E493A34003F68001F208DFF48029E49392
:104A6300A3F85407240CC8C333C4540F4420C88389
:104A73004004F456800146F6DFE4800B010204088B
:104A830010204080903E85E47E019360BCA3FF54D8
:104A93003F30E509541FFEE493A360010ECF54C0D9
:104AA30025E060A840B8E493A3FAE493A3F8E49361
:104AB300A3C8C582C8CAC583CAF0A3C8C582C8CA69
:104AC300C583CADFE9DEE780BE200103024B67C26C
:104AD3000153E6DFE4900126F0900202F090020217
:104AE300E0C3940D507BE02475F582E43400F58334
:104AF300E0F46064900203E075F064A4FFAEF0E4B8
:104B0300FCFD7BC8FAF9F81235E1A804A905AA0649
:104B1300AB07900202E02475F582E43400F583E0EC
:104B230075F002A4248DF582E5F03453F583E49304
:104B3300FE740193FFE4FCFD123556E47B64FAF93D
:104B4300F81235E1AD07AC06900202E0FF122789A7
:104B5300900202E0FF1240FB900202E004F0024ADE
:104B6300E043E62022900142E0D3940A50079001EB
:104B73003DE054F9F090013DE0FFC3135403640199
:104B83006074900148E0700204F0900149E07006FF
:104B93007414F0123B9A90014AE070157464F07E2D
:104BA300007F057D007B017A017938123766125345
:104BB3005190014BE0FEA3E04E700990014B04F0CD
:104BC300A374F4F090014DE0FEA3E04E7028900131
:104BD3004D7403F0A374E8F0900165E0FF13131321
:104BE300541F5401F45401FF33333354F8FFE0549A
:104BF300F74FF0120005229001BEEEF0A3EFF0C2D2
:104C0300AFE4F58CF58A43B8025388DF5389F75331
:104C130089FC4389019001BEE0FCA3E0FDE412346A
:104C230027123460E4C39FFFE49EFE74019400FDE9
:104C3300E49400FC78081236C89001DCEFF0900190
:104C4300BEE0FCA3E0FDE4123427123460EFF40469
:104C53009001DEF09001DCE0F58C9001DEE0F58A56
:104C63009001BEE0FEA3E0FFFBAA06E4F9F87F2073
:104C73007EA17D07FC1250B29001E0EEF0A3EFF0AD
:104C830043A802438810D2AF229001BEEFF0E4A301
:104C9300F0A3F0A31236FB000000009001BEE0C3B6
:104CA300942050169000B0E0FCA3E0FDA3E0FEA327
:104CB300E0FF9001C11236EF80149000AAE0FCA33C
:104CC300E0FDA3E0FEA3E0FF9001C11236EF9001E7
:104CD300BEE0541F9001C0F0A3E0FCA3E0FDA3E0FD
:104CE300FEA3E0FF9001C0E0F9F81236B5EF5401DE
:104CF300FFE4FEFDFCEF60089001BF7401F0800546
:104D0300E49001BFF09001BFE0FF22E49001BEF008
:104D1300C2AFF09001BEE0C3940E505475D288E048
:104D230025E0245BF582E43454F583E493FE7401B7
:104D330093EEF5CE9001BEE025E0245BF582E434EA
:104D430054F583E493740193F5CF9001BEE0F59697
:104D5300E090544D935597FF9001BEE090544D93CE
:104D630055D46F6003758E559001BEE004F080A3A7
:104D730075D28875CE4175CFDC900203E5D4F0E49B
:104D8300F5D2F5CEF5CFF5A0D2AF227E007F027D1E
:104D930000900136E0FAA3E0F97B0112376653EF86
:104DA300DF53EEFB53F2FE53F2FDC2C5C2B2C2C8DB
:104DB300C2C953F7FB53F7FD53EBDF53EBEF53EB51
:104DC300F753EBFB53EBFD53EBFE53EAFD53EAFEC4
:104DD30053F7FE53F2F753F2FB53EE7F53EEBF53F9
:104DE300EEFDD2DAD2D9D285D284D283D282D281D5
:104DF300D280D2F9D2F8D2D8D2CBD2CAD2B7D2B6D5
:104E0300D2B1229001BEEEF0A3EFF0C2AF53B8F7D8
:104E130053887F53897F5389CF4389109001BEE024
:104E2300FCA3E0FDE4123427123460E4C39FFFE4E3
:104E33009EFE74019400FDE49400FC78081236C8C9
:104E43009001DDEFF09001BEE0FCA3E0FDE412343D
:104E530027123460EFF4049001DFF09001DDE0F5F8
:104E63008D9001DFE0F58B43A808438840D2AF2241
:104E7300C2AF43F40453E1FB75963453979F4397B2
:104E83002075961B43971075961B4397207596279D
:104E93005397FE43EE107596275397FD53EEDF7538
:104EA300DC9CE4F5DE43DE0843DE0443DD4053DDF2
:104EB300EF43DD2053DDFB43DD0853DDFD43DD011F
:104EC30053DFE743E704D2AF22C0E0C0F0C083C0A2
:104ED30082C0D075D000C000C001C002C003C004AE
:104EE300C005C006C0079001DAE596F053887F90AD
:104EF30001DDE0F58D9001DFE0F58B12501C900190
:104F0300DAE0F596D007D006D005D004D003D0025E
:104F1300D001D000D0D0D082D083D0F0D0E032C244
:104F2300AF43F40853E1F775963453977F75961999
:104F33004397407596194397807596525397FB4351
:104F4300EC407596525397F753EC7F75D69CE4F576
:104F5300D943D90843D90443D74053D7EF43D72084
:104F630053D7FB43D70853D7FD43D70153DAE7435E
:104F7300E708D2AF229001D1EEF0A3EFF0C2C87FD1
:104F830001125329E49001D3F09001D3E0C39410AC
:104F93005035C2C89001D1E0FEA3E0EE30E704D261
:104FA300C98002C2C99001D1E0FEA3E025E0FFEE73
:104FB300339001D1F0A3EFF0D2C87F0112532990AF
:104FC30001D3E004F080C2C2C822C0E0C083C08223
:104FD3009001D5E4F0900200E596F053E1FBE5DFA4
:104FE30030E30975DF179001D5E5E2F0E5DF30E046
:104FF3000375DF1EE5DF30E10375DF1DE5DF30E21A
:105003000375DF1BE5DF30E40375DF0F900200E07B
:10501300F596D082D083D0E032900148E06003E07F
:1050230014F0900149E06003E014F090014AE0605D
:1050330003E014F090014BE0FEA3E04E600E9001FC
:105043004CE024FFF090014BE034FFF090014DE081
:10505300FEA3E04E600E90014EE024FFF090014D60
:10506300E034FFF022C0E0C083C082900201E596E5
:10507300F053E1F7E5DA30E30375DA17E5DA30E008
:105083000375DA1EE5DA30E10375DA1DE5DA30E29D
:105093000375DA1BE5DA30E40975DA0F90016E74F3
:1050A30001F0900201E0F596D082D083D0E032C2C5
:1050B300D5E830E70FB2D5E4C39BFBE49AFAE49951
:1050C300F9E498F8EC30E717B2D51250E81235E15D
:1050D300E4C39BFBE49AFAE499F9E498F880031299
:1050E30035E130D50DE4C39FFFE49EFEE49DFDE46E
:1050F3009CFC22E49001BFF09001BFE0C3940D50EB
:1051030031C2AFE025E024F3F582E43400F583E017
:10511300FEA3E0FF9001BFE025E024B5F582E4346F
:1051230000F583EEF0A3EFF0D2AF9001BFE004F0FF
:1051330080C622C0E0C083C0829001FBE596F05395
:10514300E1FDE5D530E005D20653D5FEE5D530E1E6
:105153000E53D5FDC206C2079001FCE4F0A3F09004
:1051630001FBE0F596D082D083D0E032D2DAD2D9F7
:10517300D285D284D283D282D281D280D2F9D2F89C
:10518300D2D8D2CBD2CAD2B7D2B6D2B17E007F02A6
:105193007D00900136E0FAA3E0F97B011237661235
:1051A300533D22900135E075F002A42427F582E5F2
:1051B300F03400F583E0FEA3E0FF12525953CCC054
:1051C300900135E02475F582E43400F583E0543F23
:1051D30042CC53C9FE43C90122900134E004F0706C
:1051E30006900133E004F09001E0E0FEA3E0FF90BD
:1051F3000133E0FCA3E0C39FEC9E400AE49001333B
:10520300F0A3F0758E55227E007F207D007B017A0E
:10521300017982123766E49001BCF0FE7F14FD7BB6
:10522300017A0179A2123766E49001BDF09001B6CC
:10523300F0221252A09001637410F01252BF124D6B
:105243008E12520A75DB5A759107200703124ACC56
:10525300124B6880F2229001D7EEF0A3EFF0900199
:10526300D7E0A3E0F5CA53CC7F9001D7E0FEA3E0DB
:10527300EE5401C313E41342CC22C2AF43F40253EE
:10528300E1FD53D5FE53D5FD75962D5397BF759606
:105293002C5397FC43970243E702D2AF2275962D16
:1052A3005397DF12531212000E124D0E12001E12EC
:1052B30000031200041252FA124349227E007F01B6
:1052C3007D007B017A0279051237667E007F057DBA
:1052D300007B017A01793812376622C0E0C083C0AF
:1052E300829001DBE596F053F17F75AEF7E0F5961A
:1052F300D082D083D0E032124E73124F227FE87EE9
:1053030003124BFA7FE87E03124E0612527D22C22D
:10531300AF53F67F53F17F75AEEFE4F592759107C6
:1053230043E680D2AF229001D4EFF09001D4E0D3D2
:1053330094004005E014F080F222D2B2D2C590016D
:10534300EEE0FEA3E0FF124F78C2C5C2B2227E0098
:105353007F057D007B017A0179381237662228297F
:1053630006072726051F1E1D1B1C101112131415DB
:10537300161718191A1B1C1D1E1F20212223242552
:10538300262728292A2B2C2D2E2F019001900190BE
:105393000190019001900190019001900190019082
:1053A3000190019001900190019001900190019072
:1053B3000190019001900190019001900190019062
:1053C3000190019001900190019001900190019052
:1053D3000190019001900190019001900190019042
:1053E30001900190019001900190012C012C012C5E
:1053F300012C012C012C012C012C012C012C012C42
:10540300012C012C012C012C012C012C012C012C31
:10541300012C012C012C012C012C012C012C012C21
:10542300012C012C012C012C012C012C012C012C11
:10543300012C012C012C012C012C012C012C012C01
:10544300012C012C012C012C012C0EFF3FFF3FFFEF
:105453003F1F7EFFFFFF7F0781FF41FF41FD41FBB0
:1054630041F941F741F541F341F141EF81FE81FDFE
:0454730041ED41EBDB
:00000001FF
