:05000000020E46222261
:0F000B00020C99E50E6004438040225380BF220F
:10001B00021166C2AF759617E4F597F5F8F5EA7518
:10002B009618F597F580F5EB759619F597F590F50C
:10003B00EC75961BF597F5B0F5EE75961CF597F5E7
:10004B00C0F5EF75961DF597F5C8F5F275961EF58B
:10005B0097F5D8F5F7D2AF22020D95121185759150
:06006B000712000E80F8F0
:0D0073000211A353ADF143AD0853ADFE22C1
:100083000210AD02032EE86480F8E933E83360110F
:100093000460F0ED33EC337009E8FCE9FDEAFEEBB4
:1000A300FF220460DED3EB9FEA9EE99DE8C2E78C62
:1000B300F0C2F795F0400CE8CCF8E9CDF9EACEFAB6
:1000C300EBCFFB1202F985D0F05804700320D5B3AF
:1000D300E80470075002B2D502033892D5EC0460ED
:1000E300F7E4CCC0E0C398F8603B94186008400D77
:1000F300D0E0FB020310E4FBFAC9FC8028E830E4FB
:1001030006E4C9FBE4CAFCE830E305E4C9CACBFC56
:10011300E854076010F8C3E913F9EA13FAEB13FB89
:10012300EC13FCD8F130F52FC3E49CFCEF9BFFEEFE
:100133009AFEED99FDD0E0FBEF4E4D4C701222DBA1
:1001430003020335EC2CFCEF33FFEE33FEED33FDFE
:10015300ED30E7EB020310EF2BFFEE3AFEED39FD36
:10016300D0E0FB50130BBB0003020338ED13FDEE8D
:1001730013FEEF13FFEC13FC020310EC4D6011E8C8
:10018300497017ED33EC3304600DE4FCFFFEFD22F0
:10019300E933E8330470F802032E1202F9580460BD
:1001A30009E4CC248150062850090203382840036F
:1001B300020335C0E0EB4A7044B98006D0E0FB028D
:1001C3000324EF4E701CBD8008EBFFEAFEE9FD80BF
:1001D300EBE98DF0A4FEE5F0020267E9CDF9EAFE52
:1001E300EBFFEF89F0A4FCE5F0CE89F0A42EFFE449
:1001F30035F0CD89F0A42DFEE435F08067EF4E7025
:1002030005BD80D780C3EF8BF0A4ACF0EE8BF0A4D8
:100213002CFCE435F0F8EF8AF0A42CE5F038FCE48C
:1002230033CB8DF0A42CFCE5F03BF8EE8AF0A42C44
:10023300FCE5F038F8E433CF89F0A42CFCE5F03882
:10024300CF3400CE89F0A42FFFE5F03EFEE433C99E
:100253008DF0A42EFEE5F039CD8AF0A42FFFE5F052
:100263003EFEE43DFD33D0E0FB50070BBB000F0225
:100273000338EC2CFCEF33FFEE33FEED33FD0203CA
:100283001075F020800E75F010800575F0087D0064
:100293007E007F003392D530D5031204F8EC33404F
:1002A30010EF33FFEE33FEED33FDEC33FCD5F0ED11
:1002B30022E5F0247EA2D513CC92E7CDCEFF22ED2A
:1002C300D2E7CD33EC3392D524814006E4FFFEFD23
:1002D300FC22FCE4CFCECDCC24E0501174FF80EDA2
:1002E300C3CC13CCCD13CDCE13CECF13CF0470F02C
:1002F30030D5DE0204F8E9D2E7C933E833F892D502
:10030300EDD2E7CD33EC33FC5002B2D522EC30E72B
:10031300100FBF000C0EBE00080DBD00040BEB60F8
:1003230014A2D5EB13FCED92E7FD2274FFFCFDFE56
:10033300FF22E480F8A2D574FF13FC7D80E480EFF4
:10034300BB010CE58229F582E5833AF583E022506F
:1003530006E92582F8E622BBFE06E92582F8E222B9
:10036300E58229F582E5833AF583E49322EF8DF064
:10037300A4A8F0CF8CF0A428CE8DF0A42EFE22C228
:10038300D5EC30E709B2D5E4C39DFDE49CFCEE3027
:10039300E715B2D5E4C39FFFE49EFE1205A4C3E4B0
:1003A3009DFDE49CFC80031205A430D507C3E49FA4
:1003B300FFE49EFE22C5F0F8A3E028F0C5F0F8E5BF
:1003C30082158270021583E038F022E88FF0A4CC06
:1003D3008BF0A42CFCE98EF0A42CFC8AF0EDA42C69
:1003E300FCEA8EF0A4CDA8F08BF0A42DCC3825F038
:1003F300FDE98FF0A42CCD35F0FCEB8EF0A4FEA923
:10040300F0EB8FF0A4CFC5F02ECD39FEE43CFCEA2F
:10041300A42DCE35F0FDE43CFC2275F00875820076
:10042300EF2FFFEE33FECD33CDCC33CCC58233C5B6
:10043300829BED9AEC99E58298400CF582EE9BFE47
:10044300ED9AFDEC99FC0FD5F0D6E4CEFBE4CDFAA2
:10045300E4CCF9A88222B800C1B90059BA002DEC46
:100463008BF084CFCECDFCE5F0CBF97818EF2FFFDE
:10047300EE33FEED33FDEC33FCEB33FB10D7039986
:100483004004EB99FB0FD8E5E4F9FA227818EF2F33
:10049300FFEE33FEED33FDEC33FCC933C910D70552
:1004A3009BE99A4007EC9BFCE99AF90FD8E0E4C971
:1004B300FAE4CCFB2275F010EF2FFFEE33FEED33A1
:1004C300FDCC33CCC833C810D7079BEC9AE89940CE
:1004D3000AED9BFDEC9AFCE899F80FD5F0DAE4CD30
:1004E300FBE4CCFAE4C8F922CFF4CFCEF4CECDF4BA
:1004F300CDCCF4CC22C3E49FFFE49EFEE49DFDE457
:100503009CFC22EB9FF5F0EA9E42F0E99D42F0EC61
:100513006480C864809845F022EB9FF5F0EA9E4220
:10052300F0E99D42F0E89C45F022E8600FECC3132C
:10053300FCED13FDEE13FEEF13FFD8F122E860107C
:10054300ECA2E713FCED13FDEE13FEEF13FFD8F05F
:1005530022E8600FEFC333FFEE33FEED33FDEC33E0
:10056300FCD8F122ECF0A3EDF0A3EEF0A3EFF02220
:10057300A8828583F0D083D08212058A12058A125D
:10058300058A12058AE473E493A3C583C5F0C58382
:10059300C8C582C8F0A3C583C5F0C583C8C582C8D2
:1005A30022BC000BBE0029EF8DF084FFADF022E4E6
:1005B300CCF875F008EF2FFFEE33FEEC33FCEE9D25
:1005C300EC984005FCEE9DFE0FD5F0E9E4CEFD224C
:1005D300EDF8F5F0EE8420D21CFEADF075F008EFD7
:1005E3002FFFED33FD4007985006D5F0F222C39854
:1005F300FD0FD5F0EA2290000BE0C3940340030201
:1006030006F6759107E51125E0244AF582E43400E6
:10061300F583E0FEA3E0FFE4FCFD7B667A16F9F8C0
:10062300D312051C503775F002E511A42498F58206
:10063300E5F03400F583E0FEA3E0C394FFEE9401FC
:1006430050030207EB0511E511C39404500302089C
:1006530026E4F51190000BF0D200020826E51125DF
:10066300E0244AF582E43400F583E0FEA3E0FFE5ED
:100673001125E0240CF582E43400F583EEF0FEA3AB
:10068300EFF0FF75F002E511A424B8F582E5F0342C
:1006930000F583EEF0A3EFF00511E511C3940440D8
:1006A3003190000BE094035003E004F0E4F511757E
:1006B300F002E511A42498F582E5F03400F583E017
:1006C300FEA3E0D39400EE9400400280721210E681
:1006D300802175F002E511A42498F582E5F0340039
:1006E300F583E0FEA3E0D39400EE94004002804F34
:1006F30002082690000BE0C39403500302082975F7
:100703009107E51125E0244AF582E43400F583E0FE
:10071300FEA3E0FFE4FCFD7B667A16F9F8C312053D
:100723001C404875F002E511A42498F582E5F034E5
:1007330000F583E0FEA3E0D39400EE940040177528
:10074300F002E511A42498F582E5F03400F58374F2
:10075300FFF5F00207FF0511E511C394044009E416
:10076300F51190000BF0D200020826E51125E024D4
:100773004AF582E43400F583E0FEA3E0FFE51125AA
:10078300E0240CF582E43400F583EEF0FEA3EFF0F1
:10079300FF75F002E511A424B8F582E5F03400F505
:1007A30083EEF0A3EFF00511E511C39404401DE4BB
:1007B300F51190000BE094065003E004F090000B59
:1007C300E0C394064004E4F0D200805775F002E5DC
:1007D30011A42498F582E5F03400F583E0FEA3E04C
:1007E300C394FFEE9401503B75F002E511A42498E5
:1007F300F582E5F03400F583E475F0011203B87572
:10080300F002E511A42498F582E5F03400F583E0C5
:10081300FEA3E0F5CA53CC7FEE5401C313E41342A5
:10082300CC80001210E622C2AF120B9B900044E072
:10083300FCA3E0FDA3E0FEA3E0FF7802120554EF62
:1008430054FCFFEF42EB900044E0FCA3E0FDA3E087
:10085300FEA3E0FF780212052DEF5430FFEF42ECC8
:10086300900044E0FCA3E0FDA3E0FEA3E0FF7804D6
:1008730012052DEF54F0FFEF42EE900044E0FCA38D
:10088300E0FDA3E0FEA3E0FF780C12052DEF42EF9D
:10089300900044E0FCA3E0FDA3E0FEA3E0FF781496
:1008A30012052DEF540FFFEF42F2900044E0FCA33A
:1008B300E0FDA3E0FEA3E0FF781812052DAB07EBE4
:1008C30042F7900040A3A3A3E0540FFFEF42EA9046
:1008D3000040E0FCA3E0FDA3E0FEA3E0FF780412E8
:1008E300052DEF5403FFEF42EB900040E0FCA3E043
:1008F300FDA3E0FEA3E0FF780612052DEF540FFFE2
:10090300EF42EC900040E0FCA3E0FDA3E0FEA3E097
:10091300FF780412052DEF54C0FFEF42EC90004026
:10092300E0FCA3E0FDA3E0FEA3E0FF780C12052D9D
:10093300EF540FFFEF42EE759626900044A3A3A356
:10094300E0FFEF4297759627900044E0FCA3E0FD9B
:10095300A3E0FEA3E0FF780812052DEF42977596FA
:1009630028900044E0FCA3E0FDA3E0FEA3E0FF78B1
:100973001012052DEF4297759629EB429775965104
:10098300900040A3A3A3E0FFEF4297759652900017
:1009930040E0FCA3E0FDA3E0FEA3E0FF780812051E
:1009A3002DEF429753CBBF53ADDF53CD8F43CD4094
:1009B30053CBC043CB3E53CDF343CD0453CCBF9075
:1009C3000005E0C43333544042CC75962B5397C78C
:1009D30043971075962B5397F8439705900098E02B
:1009E300FEA3E0FF1211F053CDFD43CD0253CDFE24
:1009F30043CD0153C9FE75962D5397FD53CCC0903B
:100A030000B0E0543F42CC53F6DF43E62053C9FE27
:100A130043C901D2AF22C1084100F9004800980040
:100A2300FF0000000000004400B00000000044008C
:100A3300B4000000004400A800000000440090003F
:100A43000000004400A40000000044008C000000EB
:100A5300004400AC000000004400A0000000004877
:100A630000B80000000000000000440094000000F3
:100A730000010E00010800010B004200EC7530423A
:100A830000EE00004200F00000010900010C00012B
:100A93000A00010D004100E9004100EA004100EBBA
:100AA30000C106C107C1054200F300004200F50082
:100AB300004100F200602C004A000000000000002A
:100AC3000000000000000000000000000000000023
:100AD3000000000000000000000000000000000013
:100AE3000000000000602C000C000100000000006A
:100AF30000000000000000000000000000000000F3
:100B030000000000000000000000000000000000E2
:100B130000000000004100050001110041000B002E
:100B2300C100C101C10242004800FF44004400006B
:100B330000004400400000000041007800C184C16F
:100B43000342008A000044003C00000000440038D7
:100B53000000000044000700000000440001000002
:100B630000004400860000000044008200000000F2
:100B730044007E00000000440079000000004200B1
:100B830076000041007D0041000600410000004165
:100B930000F7004100F8C800E4F50FF50FE50F90EA
:100BA30011FF93FF74B0250FF582E43400F583EF52
:100BB300F074B0250FF582E43400F583E0C394208C
:100BC300503F900044E0F8A3E0F9A3E0FAA3E0FB70
:100BD300C000C00174B0250FF582E43400F583E052
:100BE300F9E47F01FEFDFCA801120554D001D000F9
:100BF300EB4FFFEA4EFEE94DFDE84CFC90004480CC
:100C03003F900040E0F8A3E0F9A3E0FAA3E0FBC0C3
:100C130000C00174B0250FF582E43400F583E024AD
:100C2300E0F9E47F01FEFDFCA801120554D001D0D8
:100C330000EB4FFFEA4EFEE94DFDE84CFC9000400F
:100C430012056774B0250FF582E43400F583E0756F
:100C5300F002A4248BF582E5F03412F583E493FECD
:100C6300740193FF75F002E50FA42498F582E5F073
:100C73003400F583EEF0A3EFF0E50F25E0244AF509
:100C830082E43400F583E4F0A3F0050FE50F640478
:100C93006003020BA022C0E0C0F0C083C082C0D0BA
:100CA30075D000C000C001C002C003C004C005C0AD
:100CB30006C0079000E9E596F0E508258CF58CE57C
:100CC3000B258AF58A5388DF630EFF121118E4FFA0
:100CD300FEFDFC900007E0F8A3E0F9A3E0FAA3E02F
:100CE300FBC312051C7018FFFEFDFC900001E0F829
:100CF300A3E0F9A3E0FAA3E0FBC312051C60109084
:100D03000077E004F0700F900076E004F080079025
:100D13000076E4F0A3F0300632C39000F4E09410C0
:100D23009000F3E094275023A3E004F070069000B2
:100D3300F3E004F0C39000F4E094049000F3E09433
:100D4300004008E4F0A3F0C206D207300723900066
:100D5300F6E004F070069000F5E004F0C39000F6AE
:100D6300E094309000F5E094754006E4F0A3F0C2FF
:100D7300079000E9E0F596D007D006D005D004D05F
:100D830003D002D001D000D0D0D082D083D0F0D015
:100D9300E032C0E0C0F0C083C082C0D075D000C0D4
:100DA30000C001C002C003C004C005C006C0079054
:100DB3000000E596F053F1DF53C9FE90008AE4F09A
:100DC300A3F0900078E0705AC2AFAFACEFFEADABCA
:100DD300EDFFE51125E0244AF582E43400F583EEC6
:100DE300F0A3EFF0D2AF2000051205F980343004F0
:100DF30031051174B02511F582E43400F583E0B4B4
:100E0300FF1153C9FE0511E511C3940440E57511A3
:100E130000D201E511C394044005751100D20112FB
:100E230010E6900000E0F596D007D006D005D00478
:100E3300D003D002D001D000D0D0D082D083D0F064
:100E4300D0E03278FFE4F6D8FD9000007F007E10FA
:100E5300E4F0A3DFFCDEFA75A000758121020E9E8B
:100E6300020066E493A3F8E493A34003F68001F23F
:100E730008DFF48029E493A3F85407240CC8C33390
:100E8300C4540F4420C8834004F456800146F6DF5F
:100E9300E4800B0102040810204080900A19E47ECC
:100EA300019360BCA3FF543F30E509541FFEE49354
:100EB300A360010ECF54C025E060A840B8E493A31B
:100EC300FAE493A3F8E493A3C8C582C8CAC583CA46
:100ED300F0A3C8C582C8CAC583CADFE9DEE780BEFE
:100EE3008E0F8F10C2AFE4F58CF58A43B802538896
:100EF300DF5389F75389FC438901AC0FAD1012020C
:100F0300891202C2E4C39FFFE49EFE74019400FDB4
:100F1300E49400FC78081205408F08AC0FAD10E490
:100F23001202891202C2EFF404F50B85088C850BBB
:100F33008AAE0FAF10AB07AA06E4F9F87F207EA1B3
:100F43007D07FC1210699000ECEEF0A3EFF043A8CC
:100F530002438810D2AF22C2AF43F68053F17F75AC
:100F6300AEF75393FEAD07AC06E41202897B6F7AAA
:100F7300127903784212017EE4FBFA798078BF127A
:100F8300008D1202C2AD07AC068C94AF058F95534A
:100F930093F75393FD43930220090E75962D5397B0
:100FA300EF4397105393FB800F43EA0C75962D5331
:100FB30097EF5393FB43930443E680439301D2AFEC
:100FC300228E0F8F10C2AF43B80853887F5389CF47
:100FD300438910AC0FAD10E41202891202C2E4C3BC
:100FE3009FFFE49EFE74019400FDE49400FC7808E6
:100FF3001205408F09AC0FAD10E41202891202C230
:10100300EFF404F50C85098D850C8B43A808438800
:1010130040D2AF22E4FDC2AF75D288ED25E024F9BA
:10102300F582E43412F583E493FA740193FBEAF551
:10103300CE8BCF8D96ED9012EB93FF5597FEE5D4B3
:101043005F6E6003758E550DBD0ECD75D28875CE5E
:101053004175CFDC9000F8E5D4F0E4F5D2F5CEF598
:10106300CFF5A0D2AF22C2D5E830E70FB2D5E4C3A3
:101073009BFBE49AFAE499F9E498F8EC30E717B2A9
:10108300D512109F120459E4C39BFBE49AFAE49926
:10109300F9E498F8800312045930D50DE4C39FFF97
:1010A300E49EFEE49DFDE49CFC22C0E0C083C0827C
:1010B3009000F2E596F053E1FDE5D530E005D20668
:1010C30053D5FEE5D530E10E53D5FDC206C20790D8
:1010D30000F3E4F0A3F09000F2E0F596D082D08321
:1010E300D0E03275F002E511A42498F582E5F034DE
:1010F30000F583E0FEA3E0FF1211F053CCC074B0FF
:101103002511F582E43400F583E0543F42CC53C902
:10111300FE43C9012290008BE004F0700690008A20
:10112300E004F09000ECE0FEA3E0FFC390008BE04E
:101133009F90008AE09E4007E4F0A3F0758E55224D
:10114300C2AF43F40253E1FD53D5FE53D5FD75966B
:101153002D5397BF75962C5397FC43970243E70291
:10116300D2AF22C0E0C083C0829000EAE596F0537C
:10117300887F85098D850C8BE0F596D082D083D04E
:10118300E03275962D5397DF1211D91200761210A3
:101193001712001E1200031200041211BF02082AC4
:1011A300C0E0C083C0829000EBE596F053F17F75F9
:1011B300AEF7E0F596D082D083D0E0327FE87E03AD
:1011C300120EE37FE87E03120FC4C2097F017E0083
:1011D300120F5A021143C2AF53F67F53F17F75AE1C
:1011E300EFE4F59275910743E680D2AF228FCA539D
:1011F300CC7FEE5401C313E41342CC22100A110B2B
:10120300040506070A0A0A0B101112131415161700
:1012130018191A1B1C1D1E1F2021222324252627D3
:1012230028292A2B2C2D2E2F01900190019001901B
:101233000190019001900190019001900190019023
:101243000190019001900190019001900190019013
:101253000190019001900190019001900190019003
:1012630001900190019001900190019001900190F3
:1012730001900190019001900190019001900190E3
:101283000190019001900190012C012C012C012C63
:10129300012C012C012C012C012C012C012C012CE3
:1012A300012C012C012C012C012C012C012C012CD3
:1012B300012C012C012C012C012C012C012C012CC3
:1012C300012C012C012C012C012C012C012C012CB3
:1012D300012C012C012C012C012C012C012C012CA3
:1012E300012C012C012C012C0EFF3FFF3FFF3F1F60
:1012F3007EFFFFFF7F0781FF41FF41FD41FB41F976
:1013030041F741F541F341F141EF81FE81FD41EDAB
:0213130041EBAC
:00000001FF
